:020000040800F2
:10000000B0180020E1010008E9010008EB01000838
:10001000ED010008EF010008F101000800000000F8
:10002000000000000000000000000000F3010008D4
:10003000F501000800000000F7010008EF45000886
:10004000FB010008FB010008FB010008FB010008A0
:10005000FB010008FB010008FB010008FB01000890
:10006000FB010008FB010008FB010008FB01000880
:10007000FB010008FB010008FB010008FB01000870
:10008000FB010008FB010008FB010008FB01000860
:100090006B8E0008FB010008FB010008FB01000853
:1000A000FB010008FB010008FB010008FB01000840
:1000B000FB010008FB010008FB010008FB01000830
:1000C000FB010008FB010008FB010008FB01000820
:1000D000FB010008C7170008D95B00084356000859
:1000E000AB0C0008FB010008738E000800F002F85A
:1000F00000F05EF80AA090E8000C82448344AAF164
:100100000107DA4501D100F053F8AFF2090EBAE861
:100110000F0013F0010F18BFFB1A43F0010318473B
:10012000C4B20000E4B200000A444FF0000C10F822
:10013000013B13F0070408BF10F8014B1D1108BF65
:1001400010F8015B641E05D010F8016B641E01F805
:10015000016BF9D113F0080F1EBF10F8014BAD1C55
:100160000C1B09D16D1E58BF01F801CBFAD505E073
:1001700014F8016B01F8016B6D1EF9D59142D6D3CD
:10018000704700000023002400250026103A28BFF5
:1001900078C1FBD8520728BF30C148BF0B607047F9
:1001A0001FB59DE803000AF0E1FB1FBD10B510BDAF
:1001B0000AF038FC1146FFF7F3FF01F0E1F90AF00D
:1001C00056FC03B4FFF7F2FF03BC0AF087FC000003
:1001D000EFF3108072B6704780F31088704700000C
:1001E0000948804709480047FEE7FEE7FEE7FEE7CB
:1001F000FEE7FEE7FEE7FEE7FEE7FEE70448054907
:10020000054A064B70470000FF020008ED00000899
:10021000B0120020B0180020B0140020B01400204C
:100220000CB50020019000906D48006840F48030CB
:100230006B49086000BF6A48006800F40030009015
:100240000198401C0190009818B90198B0F5A06F72
:10025000F1D16348006800F4003010B10120009033
:1002600001E0002000900098012843D15D4800681B
:1002700040F010005B4908600846006820F0030069
:1002800008600846006840F0020008605448406872
:10029000534948600846406848600846406840F452
:1002A000806048600846406820F47C10486008463A
:1002B000406840F4E81048600846006840F08070EC
:1002C000086000BF4648006800F000700028F9D0C0
:1002D0004348406820F003004149486008464068B0
:1002E00040F00200486000BF3D48406800F00C004C
:1002F0000828F9D10CBD10B5FFF792FF10BD10B55D
:100300003748006840F001003549086008464068F9
:10031000354908403249486008460068334908407A
:100320002F4908600846006820F4802008600846CD
:10033000406820F4FE0048604FF41F008860FFF71B
:10034000DAFF4FF000602A4908602A48091D08605A
:1003500010BD10B5002100200022214B5B6803F086
:100360000C0121B1042906D0082928D107E0224B2D
:10037000224C236027E0204B204C236023E0184BC5
:100380005B6803F47010164B5B6803F48032022341
:1003900003EB904022B91A4B4343184C23600DE005
:1003A0000F4B5B6803F4003323B1154B4343134CED
:1003B000236003E0104B4343104C236003E00E4BDB
:1003C0000E4C236000BF00BF054B5B68C3F30313F3
:1003D0000C4CE15C094B1B68CB40084C236010BD02
:1003E00000100240002002400000FFF8FFFFF6FE70
:1003F00008ED00E00003FA0500127A00000000207A
:1004000000093D000400002038B500208DF80300ED
:1004100000240BE0FE4830F81400ADF80000FD4960
:1004200051F82400694606F08DFC641C062CF1D3BB
:1004300038BD10B590B00BA805F0B0FD684606F0C9
:100440004BF84FF4004006F003FF0121084606F088
:100450008EFF0121480206F097FFEF4805F07CFF70
:10046000EE480090EE48019000200290602003903A
:1004700000200490802005904000069080000790A6
:10048000202008900002099000200A906946E24866
:1004900006F004F80121E04806F02BF800200B904C
:1004A00001208DF830008DF831004FF460200D9060
:1004B00000200E9006208DF83C000BA9D7484C3840
:1004C00005F049FD002409E0601CC2B2D548015D79
:1004D0000323D2484C3805F0D6FD641C062CF3D318
:1004E0000121CE484C3805F06DFD0121CB484C3838
:1004F00005F05DFDC9484C3805F07BFD00BFC748DD
:100500004C3805F07BFD0028F9D1C4484C3805F083
:100510007FFD00BFC1484C3805F07FFD0028F9D1B0
:100520000121BE484C3805F082FD10B010BD10B559
:10053000FFF76AFFFFF77DFF0E21BB480AF0AEF917
:100540000E21BA480AF0AAF9B9480021016010BD8D
:1005500010B501460022062091FBF0F400FB1410B8
:10056000C1B20B4604E0AE4830F8130002449B1DB4
:10057000602BF8D3120990B210BD2DE9F04104466A
:10058000A71C00260020207000253FE0E8B2FFF7FE
:10059000DFFF0646B6F5186F18DBB6F5686F03DBAC
:1005A0007F2027F8150006E0A6F518600A2190FBC9
:1005B000F1F027F8150025B9207840F002002070EE
:1005C00023E0207840F0040020701EE0B6F5D06FE4
:1005D00018DCB6F5C07F03DC7F2027F8150006E0A5
:1005E000C6F5D0600A2190FBF1F027F8150025B977
:1005F000207840F00100207007E0207840F00800EB
:10060000207002E0002027F815006D1C022DBDD3DC
:10061000608840106080A0884010A080207850B989
:10062000607830B10E2120460AF038F90120BDE88B
:10063000F0810020FBE760782178884216D121788C
:10064000002001F0030232B1628823899A4202D06D
:1006500001206288228101F00C0232B1A2886389F4
:100660009A4202D00120A2886281E0E7207860707F
:100670000120DCE72DE9F0410446A71C00260020FC
:100680002070002553E0A91CC8B2FFF761FF0646A1
:1006900040F23370864221DC40F2B450864203DCE3
:1006A0007F2027F8150007E040F23370801B0321FC
:1006B00090FBF1F027F8150025B9207840F00100F3
:1006C000207033E0012D04D1207840F00800207024
:1006D0002CE0207840F02000207027E040F6A900B0
:1006E000864220DB40F62820864203DB7F2027F865
:1006F000150006E0A6F6A900032190FBF1F027F80B
:10070000150025B9207840F0020020700EE0012D80
:1007100004D1207840F00400207007E0207840F0F9
:100720001000207002E0002027F815006D1C032D3A
:10073000A9D3608840106080A0884010A080E08825
:10074000C010E080207850B9607830B10E2120468A
:100750000AF0A4F80120BDE8F0810020FBE76078F2
:100760002178884220D12178002001F0030232B1A3
:10077000628823899A4202D001206288228101F096
:100780000C0232B1A28863899A4202D00120A28869
:10079000628101F0300232B1E288A3899A4202D02C
:1007A0000120E288A281D6E7207860700120D2E79C
:1007B0001F48007870472DE9F04105460520FFF7F6
:1007C000C7FE04466F781B480088844201DB002482
:1007D0000FE019480088844207DC1848008800EBC5
:1007E0000010C0EBC00084B203E012480088001B78
:1007F00084B26E88A64224DD301B81B20F4A108875
:1008000000EBD072B1EB620F1ADA0020BDE8F08184
:1008100028AB00082C000020080002404C240140B6
:100820005402002034AB00081403002022030020EF
:10083000220000201A0000201800002016000020CE
:100840000CE0A01B81B2E44A108800EBD072B1EB3F
:10085000620F02DA0020BDE8F08100BF2646DE48C4
:10086000008894FBF0F084B2A74208D0E0B2687030
:100870002870D9480088604368800120EBE7002099
:10088000E9E700B58BB0D548FFF7F4FE58B1022078
:100890008DF804000E22D14903A809F080FF01A8B9
:1008A00000F04CFE00BF0BB000BD00B58BB0CC48D3
:1008B000FFF763FE58B103208DF804000E22C849EB
:1008C00003A809F06CFF01A800F038FE00BF0BB0D0
:1008D00000BD00B58BB0C348FFF76DFF48B10020E5
:1008E0008DF80400BF480078039001A800F026FEB0
:1008F00000BF0BB000BD2DE9F04105460420FFF715
:1009000027FE04466F780026B7480088844201DA43
:10091000002403E0B4480088201A84B2B348008859
:10092000B1490988401AA04205DAB0480088AE49AA
:100930000988401A84B26E88A6420DDD301B81B250
:10094000AB4A1088C21700EB9272B1EBA20F02DA29
:100950000020BDE8F0810CE0A01B81B2A44A108801
:10096000C21700EB9272B1EBA20F01DA0020F0E7A0
:1009700000BF26469E48008894FBF0F084B2642CA9
:1009800000DD6424BC4205D0E0B2287068706E803F
:100990000120DEE70020DCE796484078704700B58C
:1009A0008BB09448FFF7A7FF48B104208DF80400EE
:1009B00090480078039001A800F0C0FD00BF0BB084
:1009C00000BD70B502460B460024002100259A4266
:1009D00001DD002070BD981A84B2F02C01DA0020ED
:1009E000F8E7782094FBF0F081B2C1EB0110A4EBA2
:1009F000C00085B23B2D06DA481E81B2C1EB011062
:100A0000A4EBC00085B2284605EBD076C6F34F05AF
:100A1000501982B2C1EB011002EBC000401E83B23C
:100A20006D48018074480280744803800120D1E73A
:100A30002DE9F84F06464FF00008C246002000900E
:100A40000EB9BDE8F88F34680CB90020F9E72078BA
:100A5000012801D00020F4E704F1080999F800000A
:100A6000482801D00020ECE7002000F0D1FC012252
:100A70000721042000F05FFC00BF00F052FD064695
:100A800006B903E0304600F052FDF6E700BF5C48CF
:100A9000076863E05A480168384603F09FFD42F258
:100AA0001071884204D9012000F0B2FC0020C8E790
:100AB00000F037FD064606B950E034681CB93046F0
:100AC00000F035FD4AE02078012803D0304600F0E0
:100AD0002EFD43E004F10805B8F1000F1CD1287881
:100AE000372837D146480768A878022805D101225F
:100AF0000021062000F01FFC2CE0A878012829D155
:100B000000221146062000F016FC0520FFF720FD0C
:100B100000904FF001081DE0B8F1010F1AD12878BC
:100B2000362817D136480768A878022805D101224F
:100B30001146062000F0FFFB0CE0A878012809D13F
:100B400000220121062000F0F6FB0520FFF700FD42
:100B5000824604E0304600F0EAFC00BF9AE700BF9E
:100B600050460099FFF72DFFB8B104F062FBA0B129
:100B700000220721042000F0DEFB2148076800BFA7
:100B80001F480168384603F029FDB0F57A7FF7D396
:100B9000012000F03DFC012053E701254FF0000B40
:100BA00012E085F001052A460721042000F0C3FB6E
:100BB0001348076800BF12480168384603F00EFD6D
:100BC0006428F8D30BF1010BBBF10A0FE9D3012024
:100BD00000F01EFC012034E7160000201403002062
:100BE0002203002022000020200000201E00002000
:100BF0001C00002026000020180000201A00002001
:100C0000F40000201FB504208DF80F0002208DF89D
:100C10000E004003ADF80C0003A9B14806F092F8AD
:100C20004FF40040ADF80C0003A9AD4806F08AF877
:100C300000208DF8080010208DF8090001208DF8A3
:100C40000A000E21022006F093F94FF48040019033
:100C500001A805F0B9FC4FF48050ADF80C0003A9D1
:100C60009F4806F06FF84FF40050ADF80C0003A950
:100C70009B4806F067F80D21022006F079F94FF441
:100C80000050019001A805F09FFC01208DF80100A3
:100C900000208DF8020001208DF8030028208DF837
:100CA0000000684605F0C7F81FBD2DE9F0474FF07A
:100CB000000801E008F10108B8F1780FFAD388487C
:100CC000806885B28648806886B24FF4804005F01F
:100CD000E1FC002830D02F46B14609F4804907F4E2
:100CE0000047B9F1000F04D10FB9012405E0002439
:100CF00003E00FB9002400E0012484F001042CB1CA
:100D000078484088401C7749488004E0754840880E
:100D1000401E74494880734840881E2807DD1CB176
:100D200000207049488002E01E206E4948804FF440
:100D3000804005F0C0FC00BF4FF4005005F0AAFC55
:100D400080B32F46B14609F4805907F40057B9F132
:100D5000000F04D10FB9012405E0002403E00FB90E
:100D6000002400E0012434B15E480089401C81B2B7
:100D70005C48018105E05B480089401E81B259480A
:100D80000181584800891E2807DD1CB10021554803
:100D9000018102E01E21534801814FF4005005F00B
:100DA0008AFC00BFBDE8F08710B5FFF72BFF0024D9
:100DB00010E004EB44014B4A22F81140002004EB00
:100DC000440102EB4101488004EB440102EB410184
:100DD0008880641C022CECD310BD014648888A88A8
:100DE000904203D048888880012070470020FCE7AB
:100DF00070B504460026022C02DD4FF6FF7070BD70
:100E000004EB4400374901EB40004088401C85B2A8
:100E1000FFF7DEF90646344830F81400A84200DA3D
:100E2000002504EB44002F4901EB4000858004EBD2
:100E3000440001EB400045803046FFF7CDF92846DD
:100E4000DDE7014601EB4100264A02EB40008088C5
:100E5000704770B504460D460026022C02DD4FF6A1
:100E6000FF7070BD204830F81400A84202DA1E4816
:100E700030F81450FFF7ACF9064604EB440019496A
:100E800001EB4000858004EB440001EB400045800D
:100E90003046FFF7A1F92846E3E710B58AB00024F1
:100EA00019E004EB44010F4A02EB4100FFF795FF04
:100EB00080B105208DF8000004EB4400094901EBE6
:100EC0004000016802918088ADF80C00684600F08F
:100ED00035FB00BF641C022CE3D30AB010BD000038
:100EE00000100140300300203AAB00082DE9F0412A
:100EF000024692F8644004F00706002009E0FE4C28
:100F0000215CFE4C34F81140FD4D55F821502C6108
:100F1000401C0A28F3D300233CE0F74FF95CF74F5D
:100F200037F81170DFF8D8C35CF821C0CCF8147022
:100F3000002000E0401C2828FCD300BF00BF00BFF9
:100F40000024002013E0EF4F57F82070BF68DFF84F
:100F5000B8C33CF810C007EA0C050DB1012700E04A
:100F600000273D4605FA00F72743BCB2401C08287D
:100F7000E9D3E24F37F81170DFF884C35CF821C081
:100F8000CCF8107006EB860802F1140707EB48074F
:100F9000FC545B1C0A2BC0D3546E641C5466BDE821
:100FA000F081F0B503460C46FF250026002118E02D
:100FB00000220FE001EB810003EB4000875C481C3E
:100FC00000EB800003EB4000805C874201D0761C80
:100FD00002E0521C0A2AEDDB00BF0A2A00D10D46AE
:100FE000491C0729E4DB052E01DD0020F0BD082D9A
:100FF00001DB0020FAE705EB850003EB4000076802
:10100000276047686760008920810120EEE72DE9AD
:10101000F05F804698F8640000F0070007287DD153
:10102000414608F11400FFF7BCFF8346BBF1000FF7
:1010300002D10020BDE8F09FC14608F10A0A08F17C
:101040006807002400255DE00020002119F8052034
:101050001AF8053082EA030019F805201AF805305D
:1010600002EA030158B3002627E00122B240024001
:1010700012B3082C00DB48E0F02202EA051206F069
:101080000F031A4307EB84035A70A04A02EBC50210
:10109000925D07F8242019F805200123B3401A4077
:1010A00022B1022207EB84039A7003E0012207EBCE
:1010B00084039A70621CD4B2761C082ED5DB01B36F
:1010C00000261CE00122B2400A40BAB1082C00DB25
:1010D0001BE0F02202EA051206F00F031A4307EBA9
:1010E00084035A70894A02EBC502925D07F82420F6
:1010F000EE2207EB84039A70621CD4B2761C082E91
:10110000E0DB6D1C0A2D9FDB00BFD9F80000CAF898
:101110000000D9F80400CAF8040000E005E0B9F8BE
:101120000800AAF80800204684E7002082E738B5C6
:1011300003208DF8020010208DF80300002412E037
:10114000714830F81400ADF800006E4951F82400E1
:10115000694605F0F7FD6C4830F81400694951F80C
:1011600024104861641C082CEAD300BF28208DF8A5
:10117000030000240BE0644830F81400ADF80000D0
:10118000604951F82400694605F0DCFD641C082C18
:10119000F1D300BF38BD38B503208DF80200102010
:1011A0008DF8030000240BE0594830F81400ADF826
:1011B0000000584951F82400694605F0C3FD641C3D
:1011C000082CF1D338BD38B503208DF8020010206B
:1011D0008DF8030000240BE0484830F81400ADF807
:1011E0000000474951F82400694605F0ABFD641C36
:1011F0000A2CF1D300240BE0404830F81400ADF87D
:1012000000003F4951F82400694605F09BFD641C2D
:101210000A2CF1D338BD002007E03D4931F8101009
:101220003C4A52F820205161401C0828F5D37047F1
:10123000002007E0314931F81010314A52F82020DF
:101240001161401C0A28F5D37047002007E02B49A4
:1012500031F810102A4A52F820201161401C0A2847
:10126000F5D3704710B5FFF7F0FFFFF7E1FF10BDB2
:101270002DE9F04105460A21E868B0FBF1F201FBD7
:101280001206AF5DFFF7C7FFFFF7D2FF00240BE0A8
:101290000120A040384030B11D4830F814001D49ED
:1012A00051F824100861641C082CF1D3134830F85D
:1012B0001600134951F826104861701CE860BDE81B
:1012C000F08110B5FFF733FFFFF765FFFFF77BFFF6
:1012D000FFF7C8FF8821104809F002FB0F480021E2
:1012E000016041608160C1600A210D4809F0F8FA8F
:1012F0000C480021016017E0DCAB000898AB000847
:1013000070AB000840AB000860AB0008490000204B
:10131000CCAB0008ACAB00083C030020C4030020A9
:10132000D4030020DE030020416001810A216348CC
:1013300009F0D6FA10BD30B50B4600F007000A24BC
:10134000B3FBF4F504FB15335D4CE1182AB10C78BE
:10135000012585402C430C7004E00C780125854064
:10136000AC430C7030BD10B5024602F007020A20F3
:10137000B1FBF0F400FB14115148435C0120904094
:10138000184008B1012010BD0020FCE730B50B4625
:1013900000F007000A24B3FBF4F504FB1533494CB5
:1013A000E1182AB10C78012585402C430C7004E02B
:1013B0000C7801258540AC430C7030BD10B5424817
:1013C00001684248006803F009F9B0F5FA7F1ED9B8
:1013D00000210FE03A4B58183A4B5A5C4AB13C4B4B
:1013E0001B781BB103781343037002E00378934327
:1013F0000370491C0A29EDD3334B1B68334C23601F
:10140000334B1B7883F00103314C237000BF10BDB8
:1014100070B50446002504B1FF250A21294809F0CA
:101420005FFA2A460A21264809F030FA70BD10B545
:101430000A222449214809F0F7F9264820490A6878
:1014400002604A6842600989018110BD10B50A2214
:101450001A491C4809F0E8F919481E490A6802604F
:101460004A6842600989018110BD10B58AB01648EA
:10147000007800F00100D0B90024FFF7CCFE164838
:10148000FFF734FD1448FFF7C2FD0446002C0DDDC4
:10149000019401208DF80000A2000F49683102A8D4
:1014A00009F0C2F9684600F049F800BF00BFFFF735
:1014B00085FF0348FFF7DCFE0AB010BDE8030020FB
:1014C000C4030020D4030020F400002044000020C6
:1014D00048000020DE0300203C03002010B5032359
:1014E00008222449244803F067FA002416E000206B
:1014F00004EB44011F4A02EBC101087204EB8400B3
:101500001E4901EBC00004EB440142F831002820E1
:1015100004EB440102EBC1014860641C082CE6D3D3
:1015200010BD10B50121144803F0C9FA10BD10B563
:1015300004462146104803F0F9FA10BD70B5044680
:10154000002504B970BD0C4803F076FA054675B164
:1015500028222146286809F022F901222946064856
:1015600003F081FA18B12946034803F0DFFA00BFFF
:10157000E8E7000034050020F4050020F403002013
:101580000EB50025FFF7AAFF01F0DEF803F060F8C2
:1015900003F068F803F0F3FD00F027F904F02EFBE8
:1015A00004F061F8FFF78DFE0020FFF731FFFEF732
:1015B000BEFFFFF7F9FB03F021FF03F059F801F03C
:1015C000D4F804F05DF90120FFF722FF4F480768C7
:1015D00022E0FFF7A6FF044684B1204601F0E0F8C0
:1015E00010B14A48076809E02046FFF721FA10B118
:1015F0004648076802E02046FFF799FF0120FFF701
:1016000007FF42480168384602F0E8FF41F288319E
:10161000884200D901E000BFDBE700BF0120FFF7EF
:10162000F7FE00252DE000240026384807686C46A8
:101630000020206060602081AA2020700720A07018
:10164000C020E070204600F02DFE314800780128CF
:1016500003D10821204600F0EEFE002000F0DAF869
:1016600006461EB1304600F077F90CE06D1C00BF55
:1016700026480168384602F0B1FFB0F57A7FF7D30B
:1016800000BF032DCFD300BF0020FFF7C1FE01F044
:101690005BF800BFFFF745FF044604B903E02046AE
:1016A000FFF745FFF6E700BF2FE0FFF73AFF0446DC
:1016B000002000F0AFF80646002004F0B5FA81469D
:1016C000002003F0E4FF8246002004F050F9804639
:1016D00014B1204602F0ACFC3EB10E49304600F099
:1016E000CCFE10B1304602F047FF2046FFF71FFF47
:1016F000304600F031F9484604F03DFB504604F016
:1017000067F8404604F0D0F900BFCEE7F4000020AF
:10171000A2000020E8AB000800B587B001218803D3
:1017200005F032FE03A806F04DFE4FF4165003906C
:1017300003A9AB4806F0DDFD0121A94806F065FECE
:101740004FF40070ADF8080003208DF80A0018204F
:101750008DF80B0002A9A34805F0F4FA4FF480605D
:10176000ADF8080004208DF80B0002A99D4805F093
:10177000E9FA25208DF8040004208DF805000020EA
:101780008DF8060001208DF8070001A804F053FB36
:10179000012240F22551924806F043FE01210846FD
:1017A00005F0E5FD43F290008F4948648C48001D28
:1017B000C86400208864086501228021884806F0FA
:1017C00055FE07B000BD38B58548048804F02000F8
:1017D00050B18348001D0088C0B2009001226946C4
:1017E000824803F0D5F900BF38BD10B500231022A0
:1017F0007F49804803F0E0F880227F497B4803F06E
:10180000A9F94FF480627D497D4800F0FFF8FFF7A9
:1018100083FF10BDF0B585B0054600BF002700204E
:10182000049004A9714803F0FBF9074607B92CE0BE
:1018300028E00026002003900290002402A903ABB8
:10184000CDE9001039466E48049A00F0F1F80646DA
:1018500006B918E0674803F0EFF804461CB93046B3
:1018600008F02BFF0FE026600398606001202072D3
:101870000298A072012221465E4803F0F4F800208D
:10188000049000BFD5E700BF00BF00BF00BF002429
:101890005C480078E8B15448006800F4005010B982
:1018A00005B149E049E04E48008800F0400010B919
:1018B00005B141E041E04FF480504B494860524847
:1018C000007A18B15049086808F0F7FE00204D4929
:1018D00008700021474803F0F2F804465CB36068E2
:1018E000002801DD206848B9207A20B1206810B1B5
:1018F000206808F0E2FE05B11EE01EE03A48406CA8
:1019000020F00100384948646068886420680865F0
:101910000846406C40F001004864012039490870D5
:1019200018222146384808F07FFF2146314803F04D
:10193000FDF805B100E000E0A9E700BF00BF00240A
:1019400001212C4803F0BBF8044614B1204605B031
:10195000F0BD00BF0020FAE710B5044644B1207A7C
:1019600010B1206808F0A9FE2146224803F0DEF8F5
:1019700010BD2DE9F04105460E4690461F46002455
:1019800015B9601EBDE8F0811A4803F055F8044609
:1019900014B94FF0FF30F5E725606760267200222A
:1019A0002146144803F05FF80020EBE710B5044629
:1019B0001CB121460F4803F0B9F810BD4FF4806008
:1019C000704710B5044604B910BD0020A0810C205A
:1019D00060812146024806F08CFC00BFF4E700005D
:1019E0000038014000080140000002401C080020AF
:1019F00008060020880700209C07002034080020EB
:101A0000340C0020990000204C0C002070B50446D6
:101A10000E4615460CB106B115B94FF0FF3070BD3A
:101A20001821204608F05CFF266065600020F6E77C
:101A30002DE9FF4F8DB0044691469A46DDF8688047
:101A4000002700200C9014B1BAF1000F03D14FF021
:101A5000FF300C9023E221696068401A484502D2A9
:101A60004FF0FF300C90B9F1000F2ED00E9818B93E
:101A70004FF0FF300C90EDE7A06800EB09066068BE
:101A8000B04214D2D4E90101451AA268216888182D
:101A90002A460E9908F083FEA9EB05020E9B591900
:101AA000206808F07CFEA9EB0500A06009E0A268B0
:101AB000216888184A460E9908F071FEA0684844CB
:101AC000A06020694844206100BF00BF00200B9047
:101AD0000025BDE3E06828440A9061680A98B0FBDD
:101AE000F1F201FB12000A9021680A98085C099043
:101AF0000998AA287DD10026002008902069401B63
:101B000007900798072806DB606928B1A08AC0F310
:101B10000726207D089085E0E26850192168821C24
:101B20006368B2FBF3FC03FB1C228A5C042A78D1B5
:101B3000C21C6368B2FBF3FC03FB1C228A5C002A14
:101B40006FD1421D6368B2FBF3FC03FB1C228E5C69
:101B5000821D6368B2FBF3FC03FB1C228A5C0892C3
:101B6000079A082A5DDBD4F80CC0AC44CDF818C045
:101B700005F1070CD4F80CB00CEB0B034FF0000C84
:101B8000CDF814C0069A10E0D4F804C0B2FBFCFBF8
:101B90000CFB1B2CD4F800B01BF80CC0DDF814B003
:101BA0008CEA0B0CCDF814C0521C9A42ECD3D4F83A
:101BB00004C0B3FBFCFB0CFB1B3CD4F800B01BF8CF
:101BC0000CC0CDF810C0DDE904CBE3451BD005F116
:101BD000010CD4F810B0ABEB0C0CC4F810C005F13C
:101BE000010CD4F80CB0DC44C4F80CC0D4F80CC020
:101BF00000E03FE1D4F804B0BCFBFBFE0BFB1ECCC5
:101C0000C4F80CC028E3F6B2DDF820C00CF0FF0CDD
:101C1000CDF820C0DDF820C00CEB062CC4F814C0B1
:101C200000BF00BFF6B20898C0B20890089800EB59
:101C3000062608366068B6EB500F11D9681C21697A
:101C4000081A2061681CE1680844E0606168E06887
:101C5000B0FBF1F201FB1200E0600020606108E1DE
:101C60000798864275DC082E75D1002006900196F3
:101C7000019808F0F3FC07461FB94FF0FF300C90B5
:101C800007E30597E06828440390701E2844E16844
:101C9000084402900398049015E061680498B0FB32
:101CA000F1F201FB1200216811F800B0069880EAF9
:101CB0000B000690059880F800B00598401C059030
:101CC0000498401C0490029904988842E5D3616806
:101CD0000298B0FBF1F201FB1200216811F800B08C
:101CE000069858451FD101200B90059880F800B048
:101CF000216901982844081A2061E0684119019877
:101D00000844E0606168E068B0FBF1F201FB12009A
:101D1000E0600198CAF80000B8F1000F18D0012067
:101D2000C8F8000014E0384608F0C7FC0027681C1B
:101D30002169081A2061681CE1680844E060616854
:101D4000E068B0FBF1F201FB1200E060002060618E
:101D50008FE07FE0FFE70596059808F07FFC0746D7
:101D60001FB94FF0FF300C9093E2E068284461689F
:101D7000B0FBF1F201FB120B7019E16808446168D5
:101D8000B0FBF1F201FB120006900698584507D906
:101D9000206800EB0B013246384608F000FD11E0E8
:101DA0006068A0EB0B000290206800EB0B01384646
:101DB000029A08F0F4FC029BF21AF818216808F065
:101DC000EEFC00BF00206061A6F10A0081B207F1BD
:101DD000080002F00DFD049000200390B819811E48
:101DE000022203A802F0E0FCBDF80C100498814226
:101DF0001CD101200B90216905982844081A206104
:101E0000E068411905980844E0606168E068B0FB4B
:101E1000F1F201FB1200E0600598CAF80000B8F189
:101E2000000F16D00120C8F8000012E0384608F074
:101E300044FC0027681C2169081A2061681CE168BD
:101E40000844E0606168E068B0FBF1F201FB120059
:101E5000E0600EE02069401B2061E0682844E060FB
:101E60006168E068B0FBF1F201FB1200E060012064
:101E70000B90F1E10998FA2870D12069A0EB050BCD
:101E8000BBF1070F6BDB002008900720039003983D
:101E900008F0E4FB07461FB94FF0FF300C90F8E163
:101EA0003E46E06828440590A81DE1680844049077
:101EB000059806900FE060680699B1FBF0F200FB10
:101EC00012102168085C07909DF81C0006F8010BB1
:101ED0000698401C0690049906988842EBD302208D
:101EE000069009E00698385C9DF820100844C0B2BE
:101EF00008900698401C069006980628F2D3606861
:101F00000499B1FBF0F200FB12102168085C079005
:101F10009DF820009DF81C10884221D101200B90D3
:101F20009DF81C003070206903992944401A2061F3
:101F3000E068284403990844E0606168E068B0FB09
:101F4000F1F201FB1200E0600398CAF80000B8F15A
:101F5000000F18D00520C8F8000014E024E013E0BA
:101F6000384608F0AAFB0027681C2169081A20617E
:101F7000681CE1680844E0606168E068B0FBF1F269
:101F800001FB1200E0600EE02069401B2061E06868
:101F90002844E0606168E068B0FBF1F201FB1200E8
:101FA000E06001200B9057E1099800F0F0008028D4
:101FB00079D12069401B08900898032874DBE068F9
:101FC00028440790D4E9031000EB010B0020069091
:101FD0000798861C0DE06068B6FBF0F100FB11600D
:101FE0002168085C06900698FF2801D1B34602E0FC
:101FF000761C5E45EFD300BF0698FF2855D10798A1
:10200000ABEB0000401C102810D90027681C216988
:10201000081A2061681CE1680844E0606168E068B3
:10202000B0FBF1F201FB1200E06063E00798ABEB5C
:102030000000401C0490049808F010FB07461FB9EC
:102040004FF0FF300C9024E1059701200B90079E84
:102050000CE06068B6FBF0F100FB11612068415CA8
:10206000059801700598401C0590761C5E45F0D9D6
:10207000216904982844081A2061E06841190498ED
:102080000844E0606168E068B0FBF1F201FB120017
:10209000E0600498CAF80000B8F1000F02D00420F4
:1020A000C8F8000026E036E025E00798ABEB00001A
:1020B000102810D30027681C2169081A2061681CA9
:1020C000E1680844E0606168E068B0FBF1F201FBA0
:1020D0001200E0600EE02069401B2061E0682844A7
:1020E000E0606168E068B0FBF1F201FB1200E060C3
:1020F00001200B900EE02069401B2061E06828441D
:10210000E0606168E068B0FBF1F201FB1200E060A2
:1021100001200B90A0E00998A52871D12069A0EBBF
:10212000050BBBF10B0F6CDB002008900B2003901C
:10213000039808F093FA07461FB94FF0FF300C9050
:10214000A7E03E46E0682844059005F10A00E168F2
:1021500008440490059806900FE060680699B1FB6A
:10216000F0F200FB12112068405C07909DF81C0003
:1021700006F8010B0698401C0690049906988842C0
:10218000EBD30120069009E00698385C9DF82010FA
:102190000844C0B208900698401C069006980A2889
:1021A000F2D360680499B1FBF0F200FB12102168D1
:1021B000085C07909DF820009DF81C10884221D1F2
:1021C00001200B909DF81C00307020690399294470
:1021D000401A2061E068284403990844E06061687F
:1021E000E068B0FBF1F201FB1200E0600398CAF86E
:1021F0000000B8F1000F18D00620C8F8000014E065
:1022000024E013E0384608F058FA0027681C2169DA
:10221000081A2061681CE1680844E0606168E068B1
:10222000B0FBF1F201FB1200E0600EE02069401B00
:102230002061E0682844E0606168E068B0FBF1F28A
:1022400001FB1200E06001200B9005E000BF6D1C57
:102250002069A8423FF63EAC00BF2069A8420FD1DA
:102260000B9868B900202061E0682844E06061684C
:10227000E068B0FBF1F201FB1200E0600020606159
:102280000B9800B103E0206900283FF71FAC00BFA6
:1022900000BF1B9810B11B990C980860384611B00C
:1022A000BDE8F08F10B501460B78FC4C24680CB1EA
:1022B000092200E00722012002E00C5C6340401C80
:1022C0009042FADB0B5410BD2DE9FF4381B08846E4
:1022D000DDF830900024B8F1000F03D1002005B0E4
:1022E000BDE8F083DDE9030100FB01F707F110060B
:1022F000304608F0B3F904460CB90020EFE7314648
:10230000204608F0CBFAAA2020700420A0700020FC
:10231000E070A6F10800009002226946601D02F0FC
:1023200043FA2046FFF7BEFF04F10805022201A987
:10233000284602F039FA022203A9A81C02F034FA56
:10234000022204A9281D02F02FFA3A464146A81D90
:1023500008F025FAB81D81B2284602F049FA00902B
:10236000A91DC8190222694602F01EFAB9F1000F30
:1023700001D0C9F800602046B1E7F8B506460F461F
:1023800014461D4623460122394630460095FFF784
:102390009BFFF8BD70B505460C46ADB1A4B1204613
:1023A00008F05CF9064676B122462946304608F028
:1023B000F6F92346032201213046FFF7DAFA10B17D
:1023C000304608F07AF900BF70BD70B505460C467E
:1023D000ADB1A4B1204608F041F9064676B12246D7
:1023E0002946304608F0DBF9234603220121304616
:1023F00003F0D8FC10B1304608F05FF900BF70BDA3
:1024000070B505460C46ADB1A4B1204608F026F9DA
:10241000064676B122462946304608F0C0F92346E2
:1024200003220121304603F0EAF910B1304608F0EA
:1024300044F900BF70BD70B504460D4629462046DC
:10244000FFF7A8FF29462046FFF7BFFF70BD3EB546
:1024500004460D4603F040FA70B1914A07CA8DE870
:1024600007002A4621460DF1010008F098F90421E1
:10247000684603F05CFA00BF3EBD2DE9F04F8FB017
:1024800007460C4601200E901FB9801E0FB0BDE814
:10249000F08F3D682878AA2802D04FF0FF30F5E78A
:1024A000A8780C287AD1E878802878D100200C9080
:1024B0000D9000260B904FF001094FF0010A834662
:1024C000AA208DF830000C208DF8320080208DF885
:1024D000330001208DF83400A8790D2860D2DFE8A0
:1024E00000F05F0708165F245F5F5F385F3A4B00BC
:1024F00000BFA8798DF83600082008F0AFF806462E
:1025000016B94FF0000950E008200B904DE008A8E4
:1025100002F051FC4FF0000A0BAB0C2208A948F264
:102520000300FFF72AFF06463FE000200A902CB187
:10253000206918B12069804780B20A904FF0000AE4
:102540000BAB02220AA948F20500FFF716FF064668
:102550002BE002F02AF84FF0FF300A9002F036FC30
:102560000A904FF0000A0BAB04220AA948F20B00B4
:10257000FFF703FF064618E00FF228184FF0000A95
:10258000404608F0EDF8401C0BAB024641460A906D
:1025900048F20C00FFF7F1FE064606E030E0CCE022
:1025A0004FF0000900200E9000BF00BFB9F1000FEE
:1025B00020D0FEB1BAF1000F06D00CA8FFF772FED2
:1025C0000C9830600D9870601CB9304608F075F8B2
:1025D00010E0606918B9304608F06FF80AE0D4F8E6
:1025E00014C00322012130460B9BE04710B1304656
:1025F00008F063F8BBF1000F01D001F0D6FF9CE0BA
:10260000A878042874D100200D9080460E900222F4
:10261000691D0DA802F0C8F805F108060D98801E86
:102620000D9083E04FF0000900200C904FF0010A5C
:102630000B900A900990022231460BA802F0B4F8E0
:102640000222B11C0AA802F0AFF80222311D09A82B
:1026500002F0AAF8BDF82C00A0F500400A3858BBDB
:1026600006F1060B01A802F0A6FB4FF0FF3002F0C6
:10267000ADFB0090012301A904A8009A02F0CCFB55
:102680001022594604A808F03FF8B0B9002008907D
:102690000022012104A802F0E5FB11E0F80000206F
:1026A00020AC000859415F53425F4B45595F3031C0
:1026B0005F313731313037000DE04FF0FF30089097
:1026C0000CAB042208A948F20A00FFF756FE814627
:1026D00001200E9000E000BF00BFBAF1000F19D03A
:1026E000B9F1000F16D024B9484607F0E6FF11E013
:1026F00021E0606918B9484607F0DFFF0AE0D4F826
:1027000014C00322012148460C9BE04710B1484603
:1027100007F0D3FFBDF82800BDF824104843801D02
:10272000804405F1080000EB080600BF0D988045C5
:10273000FFF478AF01E000200E900E9808B1002061
:10274000A4E64FF0FF30A1E60020F3490870012015
:10275000F24908700020F2490870F2490870F24905
:1027600008700120F1490870704770477047704742
:1027700001460022012003E00B5C1344DAB2401C46
:102780000628F9DB0A54704701460022012003E0C5
:102790000B5C1344DAB2401C0A28F9DB0A54704778
:1027A0002DE9FC470746E2A000680190E148006877
:1027B00000904FF0000817B90020BDE8FC873C6886
:1027C0000CB90020F9E72078012801D00020F4E7B7
:1027D00004F1080528782A2801D00020EDE7002020
:1027E000FEF716FED448D0F800A07AE0002C51D0B5
:1027F00004F10805B8F1000F16D128782A2849D12C
:10280000CD48D0F800A0A878022808D10020FEF713
:10281000FFFD012202210020FEF78DFD3AE0A8789D
:10282000012837D1804635E0B8F1010F32D14FF0A1
:10283000FF364FF0000909E0287801A911F80910C6
:10284000884201D14E4604E009F10109B9F1020FB5
:10285000F2D300BF701CE0B1B748D0F800A0A87850
:10286000022808D11DF816103DF81620100A012282
:10287000FEF761FD0DE0A87801280AD11DF81610B9
:102880003DF81620100A0022FEF755FD06F1020859
:1028900028E000BF3846FEF74AFE0027A648016838
:1028A000504601F09BFE41F28831884204D9002055
:1028B000FEF7AEFD002080E70024FEF732FE07465B
:1028C00007B90EE03C681CB93846FEF730FE08E058
:1028D0002078012804D000243846FEF728FE00E0C6
:1028E00000BF83E700BF3846FEF721FEB8F1020FB4
:1028F00044D3B8F1020F03D0B8F1030F08D103E0BD
:1029000001208E49087004E008208C49087000E01E
:1029100000BF00BF02F08DFCA0B18748D0F800A036
:102920000120FEF775FD00BF83480168504601F0A5
:1029300055FE40F2DC518842F6D30020FEF768FDD8
:1029400001203AE701264FF0000913E086F0010666
:10295000324602210020FEF7EEFC7748D0F800A0B6
:1029600000BF75480168504601F038FE6428F8D36E
:1029700009F10109B9F10A0FE8D300BF0020FEF701
:1029800047FD002019E72DE9F04105460E461746A0
:10299000002409E015F8141035F81420100A3A46FE
:1029A000FEF7C9FC601C84B2B442F3DBBDE8F081E1
:1029B000F8B507460E4662A00068009000242CE09F
:1029C000002527E0042000FB045047FA00F000F047
:1029D000010050B1601C1DF800006A000121914007
:1029E0000843C1B2601C0DF80010042000FB045025
:1029F00046FA00F000F0010058B1601C1DF800001C
:102A0000012101EB450291400843C1B2601C0DF861
:102A100000106D1C042DD5D3641C022CD0D39DF85E
:102A200000009DF8011048409DF8021048408DF8C4
:102A3000030004216846FFF7E3FCF8BD2DE9F041EF
:102A400004460D4616461F46072C01DDBDE8F08101
:102A500016B100203B4908703DB13A480078012189
:102A6000A14008433749087006E036480078012144
:102A7000A14088433349087027B1324A5178107811
:102A8000FFF796FF00BFE1E72DE9F04104460D4650
:102A900016461F46072C01DDBDE8F08116B1002067
:102AA000284948703DB1274840780121A14008439A
:102AB0002449487006E0234840780121A14088431A
:102AC0002049487027B11F4A51781078FFF770FFEE
:102AD00000BFE1E72DE9F04707464FF000085FE14E
:102AE00007F1080000EB8806B078EE2800D155E128
:102AF0003578154C0020206060602081AA2020706D
:102B00000548007860700720A070B078012800D1D7
:102B100020714C2D73D219E09C0000209D000020F4
:102B2000140000209E0000209F000020A100002033
:102B30001E1F00002CAC0008F4000020A2000020A2
:102B4000FC000000A3000020640C0020DFE805F07A
:102B500057262B30313738393A43444A4B4C4D587D
:102B6000595A5B5C5D6C6D6E6F797A7B7C7D83847A
:102B7000858687888E8F90919293999A9B9C9D9E33
:102B8000A4A5A6A7A8A9AFCAF9FAFBFCFDFEFFE918
:102B9000E8E7E6E5E4E3E2E1E0DFDEDD4720E070E0
:102BA00002206071F1E04720E07000206071ECE0ED
:102BB00000BF4720E07005F13D006071E5E000BF17
:102BC00000BF00BF4020E070207940F0100020716D
:102BD000681F6071D9E000BF4C20E07005F157001C
:102BE0006071D2E000BF00BF00BF4020E0702079DC
:102BF00040F020002071A5F10B006071C5E0C3E03A
:102C000000BF00BF00BF00BF00BFA5F10F01C8B2E9
:102C10004721E1702179421041EA0211217100F04F
:102C20000101491D6171B0E000BF00BF00BF40203D
:102C3000E070207940F030002071A5F1150060713E
:102C4000A3E000BF00BF00BF00BF4C20E07005F153
:102C50004900607199E000BF00BF00BF00BF00BF26
:102C60004820E070A5F11C0060718EE000BF00BF3D
:102C700000BF00BF00BF4820E07005F15C0060713C
:102C800083E000BF00BF00BF00BF00BF4820E0706E
:102C9000A5F12200607178E000BF00BF00BF00BF57
:102CA00000BF4820E07005F1600060716DE0B07811
:102CB00002280FD1012211460620FEF73CFBA5F1A8
:102CC000350000F0FF094FEA0970000EE0700F2098
:102CD000A07106E000202071002201210620FEF7ED
:102CE0002AFB52E0B078022823D1012200210620DD
:102CF000FEF721FBA5F1350000F0FF094FEA09704E
:102D0000000EE0700F20A0711AE037E035E033E0EC
:102D100031E02AE028E026E024E022E020E01EE086
:102D20001CE015E013E011E00FE00DE00BE009E01E
:102D300007E000202071002211460620FEF7FBFA72
:102D400023E000BF00BF00BF00BF00BF00BF00BF47
:102D50004020E070A5F13800607116E000BF00BFB0
:102D600000BF00BF00BF00BF00BF4820E070A5F15A
:102D70003200607109E000BF00BF00BF4B20E0706F
:102D8000A5F14700607100E008E000BF2046FFF7B2
:102D900089FA08212046FFF74EFB00BF08F1010821
:102DA000786840453FF69CAE0120BDE8F0872DE9EC
:102DB000FF410446F948007818B9002004B0BDE886
:102DC000F081F74D0020286068602881AA202870D3
:102DD000F448007868700720A870207AE870A07A1C
:102DE0002871207B6871A07BA871EF48007818B12A
:102DF000287940F0400028712846FFF753FA08214F
:102E00002846FFF718FBE948007808B90120D5E704
:102E1000E748007802281ED1FF208DF80800E1481D
:102E20000078401CC0B28DF8090000208DF80A001F
:102E3000207A4006000E8DF80B00A07A8DF80C0069
:102E4000207B8DF80D0002A8FFF792FC072102A855
:102E5000FFF7BBFA1FE1207A4006060E06F07E0659
:102E6000D04800788130C0B28DF80000D148007899
:102E700060B906F01E0018B10120CE49087005E0C7
:102E800006F0600010B10220CA490870C9480078F5
:102E9000012828D1C848007850B306F01E0038BB7E
:102EA00001208DF8010006208DF8020001208DF828
:102EB000030000208DF804008DF8050003208DF834
:102EC00006008DF80700FF208DF8080009216846EC
:102ED000FFF77BFA0020B849087006F0400018B1EF
:102EE0000220B449087060E00020B24908705CE03C
:102EF00001208DF8010006208DF8020001208DF8D8
:102F0000030006F00600D8B16189C1EBC10202EBF3
:102F100001103F21B0FBF1F01821B0FBF1F201FBF1
:102F20001200401CC1B28DF8041006F0040119B162
:102F300001218DF8061002E002218DF8061005E04F
:102F400000208DF8040003208DF8060006F018001C
:102F5000D8B1A18901EB410202EB01103F21B0FB86
:102F6000F1F01421B0FBF1F201FB1200401CC1B2E0
:102F70008DF8051006F0080119B101218DF8071030
:102F800002E002218DF8071005E000208DF8050011
:102F900003208DF80700FF208DF8080009216846FE
:102FA000FFF713FA0120844908708248007802284C
:102FB0006CD182480078D8B106F06000C0B9012019
:102FC0008DF8010004208DF8020007208DF8030021
:102FD00000208DF80400FF208DF8050006216846CA
:102FE000FFF7F3F9002075490870724908704DE049
:102FF00006F04000402824D1E08900EB80070F2034
:10300000B7FBF0F70620B7FBF0F100FB1177BF1C10
:1030100001208DF8010004208DF8020007208DF8B2
:10302000030007F13000C0B28DF80400FF208DF8D6
:10303000050006216846FFF7C8F901205F490870BE
:1030400024E0E08900EB80070F20B7FBF0F70620B3
:10305000B7FBF0F100FB1177BF1C01208DF80100D8
:1030600004208DF8020007208DF8030007F12000EE
:10307000C0B28DF80400FF208DF8050006216846D7
:10308000FFF7A3F901204D49087000BF16B90020D1
:103090004849087000BF012090E670B505463F48DA
:1030A000007808B9002070BD3D4C002020606060B1
:1030B0002081AA2020703B48007860700720A07013
:1030C000287AE070A87A2071287B6071A87BA071B3
:1030D000207940F0400020712046FFF7E3F80821F6
:1030E0002046FFF7A8F90120DDE770B505462C4C16
:1030F0000CB9002070BD0020206060602081AA20F3
:1031000020702848007860700720A0708020E07050
:10311000207940F080002071287A60712046FFF706
:10312000C1F808212046FFF786F90120E2E770B5D3
:1031300005461B4C0CB9002070BD0020206060606B
:103140002081AA2020701748007860700720A070A6
:103150002E8916B1012E0CD104E04920E0702079AF
:10316000207108E04920E070207940F010002071C3
:1031700001E00020E0E700BFA87A60712046FFF779
:1031800091F808212046FFF756F90120D4E770B5E1
:103190000546034CA4B9002070BD0000A10000202A
:1031A000640C00209C000020A00000209D00002056
:1031B000A2000020DA000020D9000020D800002062
:1031C0000020206060602081AA202070FD480078E7
:1031D00060700620A0708020E070287A6071A07175
:1031E0002046FFF75FF808212046FFF724F9012069
:1031F000D2E72DE9F04F8BB080464FF00009E8E3AD
:1032000008F1080000EB89054FF0000A2E78A87835
:10321000EE280AD1382E02DB3B2E00DC06E0152E0C
:1032200002DB182E00DC01E021E200BF0AAC002026
:1032300020604F2E7DD2DFE806F07C28292A2B5013
:103240005152538081A6A7A8A9F4F3F2F1F0EFEE52
:10325000EDECEBEAE9E8E7E6E5E4E3E2E1E0DFDE16
:10326000DDDCDBDAD9D8D7D6D5D4D3D2D1D0CFCE06
:10327000CDCCCBCAC9C8C7C6C5C4C3C2C1C0BFBEF6
:10328000BDBCBBBAB9B8B7B6B50000BF00BF00BF80
:10329000CD4903C9CDE90801701EC7B2A87801283D
:1032A00000D1ECE3C948C05D08B9012000E000206E
:1032B000C649C8550220207007F1210060700846F9
:1032C000C05DA0700B46DA5D08AB13F8171033F839
:1032D0001730180AFEF72FF8C4E300BF00BF00BF85
:1032E000B949083103C9CDE90801B9A000680790C0
:1032F000701FC7B2A878012800D1C0E30020207059
:1033000007A8C05D60700120A0700022042108A8F9
:10331000FFF739FB08AA12F8171032F81720100A25
:103320000122FEF708F8A748077000220821A948E3
:1033300000E096E3FFF727FB94E300BFA2481030BC
:1033400000680990A4A000680890A6F10900C7B21F
:103350000020207008A8C05D6070A878022801D104
:10336000012000E00020A070A3780BB1012300E051
:1033700000231A4609AB13F8171033F81730180A50
:10338000FDF7D9FF6EE300BF00BF00BF8E491431C7
:1033900003C9CDE90801A6F10B00C7B2A87801283E
:1033A00040D16CE35CE35AE343E306E304E302E366
:1033B00000E3DCE2DAE2D8E2D6E2D4E2D2E2D0E222
:1033C000CEE241E23FE23DE23BE239E237E235E282
:1033D00033E296E194E16CE16AE168E166E164E17F
:1033E00062E160E15EE15CE15AE158E156E12EE123
:1033F0002CE12AE128E126E124E122E120E11EE19D
:103400001CE11AE118E1F6E0F4E0B4E0B2E0B0E06B
:103410005BE059E057E055E01FE01DE01BE019E0DC
:1034200017E015E00120207007F1610060700020B6
:10343000A0700022042108A8FFF7A5FA08AA12F834
:10344000171032F81720100A0122FDF774FF09E364
:1034500000BF00BF00BF00BF00BF5B4A1C3207CAED
:1034600007AB07C35DA0006806905DA000680590EB
:10347000A6F10F00C7B24FEA670B07F00107A87863
:10348000012800D1FBE206A810F80B00207005A867
:10349000C05D60700020A07007A901EB8B000022C6
:1034A0000221FFF770FA07AA02EB8B0212F817103D
:1034B00007AA02EB8B0232F81720100A0122FDF74F
:1034C0003AFFCFE200BF00BF00BF3F49283103C928
:1034D000CDE90801A6F11500C7B2A878022808D1E5
:1034E00040480068404941F8270000203F49C8553E
:1034F000C5E2A878EE281CD13C48C05DC0B93A4965
:1035000051F827003749096801F068F8B0F5FA6FFB
:103510000ED901203549C85508AA12F8171032F8FB
:103520001720100A0122FDF731FF032001F0BDFF33
:10353000A5E20220207007F1700060702B48C05D8A
:10354000A07008AA12F8171032F81720100A0022EB
:10355000FDF71CFF0022042108A8FFF714FA08AAAF
:1035600012F8171032F81720100A0122FDF7E3FEB7
:1035700078E200BF00BF1449303103C9CDE908012A
:10358000A6F11900C7B2A878012800D177E218483F
:10359000C05D08B9012000E000201549C85502208F
:1035A000207007F1750060700846C05DA0700B4682
:1035B000DA5D08AB13F8171033F81730180AFDF767
:1035C000BAFE4FE29C00002030AC0008DB00002077
:1035D0002324212210AC000826280000000102004C
:1035E000201B0000F4000020700C0020DF000020F1
:1035F000E300002000BFF74800680990A6F11C0016
:10360000C7B20020207007F178006070A878022807
:1036100001D1012000E00020A070A3780BB10123AC
:1036200000E000231A4609AB13F8171033F81730DF
:10363000180AFDF780FE15E200BF00BF00BF00BF03
:1036400000BF00BF00BF00BF00BF00BF00BF182207
:10365000E049091D04A807F0E7F8DFA207CA01AB9B
:1036600007C3A6F11E00C7B2A878012800D106E260
:103670000020207001A8C05D60700020A0700022B2
:103680000C2104A8FFF77FF904AA12F8171032F8EA
:103690001720100A0122FDF74EFEE3E100BF00BF34
:1036A00000BF00BF00BF00BF00BF00BF00BF00BF22
:1036B00000BF1822C7491C3104A807F0B5F8C6A2FC
:1036C00007CA01AB07C3A6F12A00C7B2A878012830
:1036D00000D1D4E10220207001A8C05D60700020FC
:1036E000A07000220C2104A8FFF74DF904AA12F8DB
:1036F000171032F81720100A0122FDF71CFEB1E165
:1037000000BFB448343000680990B6A00068089043
:10371000A6F13600C7B20020207008A8C05D607016
:10372000A878022801D1012000E00020A070A37831
:103730000BB1012300E000231A4609AB13F8171060
:1037400033F81730180AFDF7F6FD4FF0010A002292
:103750000821A548FFF717F9362E36D1A878022898
:1037600019D1A24800788130C0B28DF8180001202C
:103770008DF8190004208DF81A0007208DF81B0021
:1037800002208DF81C00FF208DF81D00062106A8E0
:10379000FEF751FE50E0954800788130C0B28DF8B8
:1037A000180001208DF8190004208DF81A00072058
:1037B0008DF81B0000208DF81C00FF208DF81D00E7
:1037C000062106A8FEF737FE36E0A878022819D1B0
:1037D000864800788130C0B28DF8180001208DF83D
:1037E000190004208DF81A0007208DF81B00032013
:1037F0008DF81C00FF208DF81D00062106A8FEF79D
:103800001AFE19E0794800788130C0B28DF81800AE
:1038100001208DF8190004208DF81A0007208DF87A
:103820001B0000208DF81C00FF208DF81D000621D4
:1038300006A8FEF700FE00BF14E100BF00BF00BFF6
:1038400000BF00BF00BF00BFA6F13800C7B2A87814
:10385000022808D166480068664941F82700002020
:103860006549C8550BE1A878EE281CD16248C05DB7
:10387000C0B9604951F827005D49096800F0AEFE03
:10388000B0F5FA6F0ED901205B49C855564A12F8B7
:10389000171032F81720100A0122FDF777FD0320D8
:1038A00001F003FEEBE00020207007F16100607082
:1038B0005148C05DA0704C4A12F8171032F817201A
:1038C000100A0022FDF762FD002208214648FFF79A
:1038D0005AF8454A12F8171032F81720100A012238
:1038E000FDF729FD4FF0010A4348C05DD8B13F48BC
:1038F00000788130C0B28DF8200001208DF82100C1
:1039000004208DF822003F208DF8230001208DF83F
:1039100024008DF82570FF208DF82600072108A8C7
:10392000FEF789FD1BE0314800788130C0B28DF888
:10393000200001208DF8210004208DF822003F2076
:103940008DF8230002208DF824008DF82570FF20CB
:103950008DF82600072108A8FEF76DFD00BF81E065
:1039600000BF00BF00BF00BF00BF00BF00BF194BBA
:1039700038330FCB06AF0FC7A6F14000C7B2002007
:10398000207007F170006070A878022801D1012032
:1039900000E00020A070A3780BB1012300E0002319
:1039A0001A4606AB13F8171033F81730180AFDF74C
:1039B000C2FC57E000BF00BF00BF0649483103C941
:1039C000CDE90801A6F14800C7B2A878012815D1B1
:1039D00055E056E068AC00083132333435363738BC
:1039E000393060652527000010AC00089C000020DD
:1039F000F4000020800C0020E4000020FE48C05DA0
:103A000008B9012000E00020FB49C85502202070C1
:103A100007F1610060700846C05DA0700B46DA5D7A
:103A200008AB13F8171033F81730180AFDF783FCAA
:103A300018E0042020706B206070A878022801D163
:103A4000012000E00020A070A07808B1012000E073
:103A50000020024608210320FDF76DFC02E000BFB4
:103A60000DE000BF00BFBAF1000F03D103212046D3
:103A7000FEF7E1FC03212046FEF7E9FC00BF09F157
:103A80000109D8F8040048453FF6BAAB01200BB055
:103A9000BDE8F08F2DE9F04F85B0074604AC002556
:103AA00000202080A0703D7A97F80A8097F80C904B
:103AB00097F80EB04FEAA8084FEAA9090220207033
:103AC00005F00F0050B9CD480078022864D10020DD
:103AD0006070A0700120C94908705DE005F0060023
:103AE000062808D12520607048EA0910A07002203D
:103AF000C249087050E005F00500052808D12620CD
:103B0000607048EA0910A0700220BC49087043E0C8
:103B100005F00A000A2808D12720607048EA091039
:103B2000A0700220B549087036E005F009000928A8
:103B300008D12820607048EA0910A0700220AF491F
:103B4000087029E005F0020038B12520607084F883
:103B500002800220A949087009E005F0010030B197
:103B60002720607084F802800220A449087005F0C4
:103B7000040038B12620607084F8029002209F492A
:103B8000087009E005F0080030B12820607084F862
:103B900002900220994908709848007850B103219A
:103BA0002046FEF754FC95480078012802D10020F9
:103BB000924908700020207005F0300058B99048F4
:103BC000007802281CD12F2060700020A0700120F6
:103BD0008B49087014E005F0100038B12E20607099
:103BE00084F802B002208649087009E005F0200040
:103BF00030B12D20607084F802B002208049087036
:103C00007F48007850B103212046FEF720FC7C4815
:103C10000078012802D1002079490870387A4006DE
:103C2000060E002208217748FEF7ADFE06F07E065C
:103C3000754800788130C0B28DF800007348007874
:103C400060B906F01E0018B101207049087005E047
:103C500006F0600010B102206C4908706B480078D3
:103C6000012828D16A48007850B306F01E0038BBFE
:103C700001208DF8010006208DF8020001208DF84A
:103C8000030000208DF804008DF8050003208DF856
:103C900006008DF80700FF208DF80800092168460E
:103CA000FEF7C9FB00205A49087006F0400018B121
:103CB00002205649087060E00020544908705CE01A
:103CC00001208DF8010006208DF8020001208DF8FA
:103CD000030006F00600D8B17989C1EBC10202EBFE
:103CE00001103F21B0FBF1F01821B0FBF1F201FB14
:103CF0001200401CC1B28DF8041006F0040119B185
:103D000001218DF8061002E002218DF8061005E071
:103D100000208DF8040003208DF8060006F018003E
:103D2000D8B1B98901EB410202EB01103F21B0FB90
:103D3000F1F01421B0FBF1F201FB1200401CC1B202
:103D40008DF8051006F0080119B101218DF8071052
:103D500002E002218DF8071005E000208DF8050033
:103D600003208DF80700FF208DF808000921684620
:103D7000FEF761FB012026490870244800780228DC
:103D80001DD124480078D8B106F06000C0B90120E8
:103D90008DF8010004208DF8020007208DF8030043
:103DA00000208DF80400FF208DF8050006216846EC
:103DB000FEF741FB0020174908701449087061E0C4
:103DC00006F04000402837D1F88900EB800A0F2028
:103DD000BAFBF0FA0620BAFBF0F100FB11AA0AF1D7
:103DE000020A01208DF8010004208DF8020007204E
:103DF0008DF8030010E00000EC000020ED00002032
:103E0000EE00002010AC00089C000020F100002013
:103E1000F0000020EF0000200AF13000C0B28DF861
:103E20000400FF208DF8050006216846FEF703FB1D
:103E30000120F949087025E0F88900EB800A0F207D
:103E4000BAFBF0FA0620BAFBF0F100FB11AA0AF166
:103E5000020A01208DF8010004208DF802000720DD
:103E60008DF803000AF12000C0B28DF80400FF2095
:103E70008DF8050006216846FEF7DDFA0120E649C7
:103E8000087000BF16B90020E4490870012005B091
:103E9000BDE8F08F2DE9F84380466C4600250020F0
:103EA0002080A07098F8085098F80A6098F80C7074
:103EB000B610BF100120207005F00F0050B9D8488F
:103EC0000078022860D100206070A0700120D449E1
:103ED000087059E005F00600062808D1252060701A
:103EE00046EA0710A0700220CD4908704CE005F0AA
:103EF0000500052808D12620607046EA0710A0704A
:103F00000220C74908703FE005F00A000A2808D1DE
:103F10002720607046EA0710A0700220C049087090
:103F200032E005F00900092808D12820607046EA2F
:103F30000710A0700220BA49087025E005F00200C1
:103F400030B125206070A6700220B549087008E0E5
:103F500005F0010028B127206070A6700220B0494A
:103F6000087005F0040030B126206070A7700220B0
:103F7000AB49087008E005F0080028B128206070FF
:103F8000A7700220A6490870A548007870B10321E7
:103F90002046FEF750FA03212046FEF758FAA048C3
:103FA0000078012802D100209D4908700120BDE859
:103FB000F883F8B505466C46288986B20020208033
:103FC000A0700120207030206070C6EB06207721A1
:103FD00090FBF1F086B2A67003212046FEF72BFA83
:103FE00003212046FEF733FA0120F8BDF8B5054657
:103FF0006C4600202080A0702E8916B1012E06D1BB
:1040000002E06F20607004E06A20607001E0002030
:10401000F8BD00BF04202070A87AA07003212046BC
:10402000FEF709FA03212046FEF711FA0120EFE717
:1040300070B505462C682078062801DB002070BD8D
:104040002078784951F8200088B177480078012815
:1040500006D120780A4652F8201020468847EEE71D
:104060002078724A52F8201020468847E7E700205F
:10407000E5E72DE9F04391B007461FB9012011B0E3
:10408000BDE8F0833C6894F803802079051120791D
:1040900000F00F002071A07908B9012000E0002095
:1040A0008146A078062801D10120E8E74046B8F112
:1040B000490F72D00ADCA0F1400009286ED2DFE877
:1040C00000F0126D6D6D6D5B5C5DBC004C2872D0B4
:1040D00004DC4A2870D04B2860D1B3E180286CD032
:1040E000C028F9D1F2E115BB607908281FDA504BDE
:1040F000D3E901211868DB68CDE90F13CDE90D0282
:104100000DA901EB051000220821FEF73CFC0DAAC9
:1041100002EB0512637912F813100DAA02EB0512D7
:1041200032F81320100A4A46FDF705F923E0042D62
:1041300021DA607904281EDA18223D4910310BA8D3
:1041400006F072FB681EC5B20BA901EBC500002288
:104150000421FEF718FC0BAA02EBC502637912F8E2
:1041600013100BAA02EBC50232F81320100A4A46BC
:10417000FDF7E1F800BFF6E1F5E1F4E16679062E1E
:104180001DD005DC5EB1022E0FD0052E52D115E0F8
:10419000402E35D0412E4DD138E051E1E1E14A4683
:1041A00000210846FDF7C7F845E04A4601210020F6
:1041B000FDF7C1F83FE05FE143E186E100BF1C4A43
:1041C000283207CA0EAB07C3032D18DA0EA901EB7C
:1041D000850000220221FEF7D6FB0EAA02EB850322
:1041E0006279521F13F812100EAA02EB850362794E
:1041F000521F33F81220100A4A46FDF79CF81AE0C5
:104200004A4601210846FDF796F814E04A46002187
:104210000120FDF790F80EE0EF000020F1000020F3
:10422000F2000020A8000020A2000020C000002012
:10423000B8AC000800BF00BF95E11822E1490BA807
:1042400006F0F2FA1822DF49183105A806F0ECFA58
:104250006679112E7BD00CDC112E79D2DFE806F0C6
:1042600030ED3132333435365455565758597E7FF8
:104270008000842E6DD012DC802E6BD008DC122ED4
:1042800070D0132E6FD0142E6ED0152E60D16CE02E
:10429000812E7DD0822E7CD0832EF7D18AE0922E83
:1042A00078D006DC852E76D0902E75D0912EEDD16B
:1042B000A1E0932E71D0942E70D0952EE6D19EE081
:1042C000BCE000BF00BF00BF00BF00BF00220C2148
:1042D0000BA8FEF758FB6279921E0BAB13F8121075
:1042E0006279921E33F81220100A4A46FDF723F82D
:1042F0002079012807D16179891EC8B201231A46A5
:104300004946FEF79BFB99E000BF00BF00BF00BF1E
:1043100000BF00220C2105A8FEF735FB6279083AA0
:1043200005AB13F812106279083A33F81220100A1C
:104330004A46FDF700F82079012807D1617908394C
:10434000C8B201231A464946FEF79EFB76E008E014
:1043500073E030E02BE005E005E005E000BF00BFC2
:1043600000BF00BF00BF00BF00BF964B30330FCB74
:10437000CDE90323CDE901010022082101A8FEF7C0
:1043800002FB62790E3A01AB13F81210627906E073
:104390000EE00EE030E00FE02CE02EE02EE00E3AD2
:1043A00033F81220100A4A46FCF7C5FF46E000BF6A
:1043B00000BF00BF00BF00BF00220C210BA8FEF70A
:1043C000E2FA62797A3A0BAB13F8121062797A3A10
:1043D00033F81220100A4A46FCF7ADFF2079012875
:1043E00007D161797A39C8B201231A464946FEF7E6
:1043F00025FB23E000BF00BF00BF00BF00BF0022BD
:104400000C2105A8FEF7BFFA62798A3A05AB13F8CA
:10441000121062798A3A33F81220100A4A46FCF7E1
:104420008AFF2079012807D161798A39C8B201232E
:104430001A464946FEF728FB00E000BF00BF92E0A5
:1044400091E090E06679052E15DAA6B15D4940311C
:1044500003C9CDE90F01002204210FA8FEF793FA4A
:10446000721E0FAB13F8121033F81220100A4A46CE
:10447000FCF761FF00BF76E06679A6F160000728CF
:1044800020D2DFE800F00405060708090A0000BF93
:1044900000BF00BF00BF00BF00BF4A4B48330FCB77
:1044A000CDE90F23CDE90D016279603A0DAB13F828
:1044B00012106279603A33F81220100A4A46FCF76B
:1044C0003AFF00E000BF00BF4DE04CE060790128FA
:1044D00046D1A07920B102281DD003283DD120E08B
:1044E000394E0EB90020CAE500203060706030817E
:1044F000AA2030703548007870700720B070C02056
:10450000F070012070713046FDF7CCFE0821304676
:10451000FDF791FF23E00020FCF77AFFFEF714F986
:104520001DE0294E0EB90020A9E500203060706022
:104530003081AA2030702548007870700720B07054
:104540008020F070FCF734F970713046FDF7AAFE58
:1045500008213046FDF76FFF01E000208FE500BF26
:1045600001E000208BE500BF012088E50146012025
:10457000704701460120704710B50446A07A012813
:1045800003D12046FFF775FD10BDA07A082803D19E
:104590002046FFF7EBFFF7E7A07A092803D1204672
:1045A000FFF7E7FFF0E70020EEE70948006800F4B6
:1045B000E06008490843001D05490860BFF34F8FBC
:1045C00000BFFEE7ECAC0008640C00209C0000205B
:1045D0000CED00E00000FA0500BFFEE70246914244
:1045E00001D3881A7047C2F1FF300844FAE710B5CA
:1045F000FCF73BFF00F05CFF1348007800F00F0071
:104600000F281BD11148007800F0030414B9FCF7FF
:1046100038F90DE0012C02D1FCF75BF908E0022C1F
:1046200002D1FCF73AFC03E0032C01D1FCF73DF981
:1046300006480078401C0549087000BF0248006821
:10464000401C0149086010BDF4000020FC0000205F
:1046500010B50121080702F0A4FE01217D2002F01F
:1046600093FE10BD10B50121474802F03CFC10BD7F
:1046700030B5464800684FF47A72B0FBF2F1B1F100
:10468000807F00D31DE021F07F40401E4FF0E022EC
:10469000506150170F22002807DA13071D0E3C4BFC
:1046A00000F00F04241F1D5503E013071C0E394BA7
:1046B0001C5400BF00204FF0E022906107201061E1
:1046C00000BF30BD10B586B004460121880402F059
:1046D00068FE0021304803F098FE02A803F072FE45
:1046E000029402A92C4803F004FE01212A4803F099
:1046F0008CFE4FF48060ADF8040003208DF80600B6
:1047000018208DF8070001A9244802F01BFB4FF484
:104710000060ADF8040004208DF8070001A91F48CF
:1047200002F010FB06B010BD10B586B004460121A2
:10473000480402F036FE0021194803F066FE02A884
:1047400003F040FE029402A9154803F0D2FD0121B6
:10475000134803F05AFE0420ADF8040003208DF83E
:10476000060018208DF8070001A90E4802F0EAFAA9
:104770000820ADF8040004208DF8070001A90948BD
:1047800002F0E0FA06B010BD000230000000002088
:1047900018ED00E000E400E000480040000C01409B
:1047A000004400400008014010B50346002004E02A
:1047B000141A641E0C5D1C54401C9042F8D310BDAA
:1047C00030B502460B464FF0FF3002B103B930BDA1
:1047D000002108E0C4B2555C6C40734D55F824408C
:1047E00084EA1020491C9942F4D3C04300BFEEE78D
:1047F00070B502460C46FF25FF2312B94FF6FF7035
:1048000070BD09E012F8010B80EA03016748405CC3
:1048100080EA05036648455C201EA4F10106B4B297
:10482000F0D143EA0520EBE72DE9F04F03460C46B3
:10483000944600221D680026DFF87891012C57DD90
:10484000601E53F82020342090FBF4F000F106089D
:1048500046E04E44C6F3810700211FE0481C53F890
:104860002050500980EA85004FEAD50A8AEA021AE8
:10487000504486EA050A01F0030B8BEA070B5CF84B
:104880002BB08BEA020BDA4480EA0A0053F821A02D
:10489000504443F8210053F82120491C601E8842EF
:1048A000DCDC1D68500980EA85004FEAD50A8AEAF7
:1048B000021A824486EA050001F0030B8BEA070B1B
:1048C0005CF82BB08BEA020B58448AEA000A601E9F
:1048D00053F820008244601E43F820A053F82020A3
:1048E000B8F10000A8F10108B3DC0020BDE8F08FAA
:1048F000B4F1FF3F56DA6442601E53F820203420A2
:1049000090FBF4F000F1060808FB09F646E0C6F358
:104910008107611E20E0481E53F82020500980EADC
:1049200085004FEAD50A8AEA021A504486EA050A47
:1049300001F0030B8BEA070B5CF82BB08BEA020B40
:10494000DA4480EA0A0053F821A0AAEB000043F8F9
:10495000210053F82150491E0029DCDC601E53F869
:104960002020500980EA85004FEAD50A8AEA021A17
:10497000504486EA050A01F0030B8BEA070B5CF84A
:104980002BB08BEA020BDA4480EA0A00D3F800A0CD
:10499000AAEB000018601D68A6EB0906002EB6D130
:1049A0000020A3E70120A1E754AD000854B100089E
:1049B00054B20008B979379E2DE9F04707460C46F6
:1049C000164698464FF0000917B10CB1002E03DAD5
:1049D0004FF0FF30BDE8F087FBF7FAFB814606EBAE
:1049E0004600C100204605F07BFF1421384605F043
:1049F00077FF002510E005EB450004EBC000A0F8B0
:104A00000C8005EB450004EBC000183005EB4501B8
:104A100004EBC10108616D1C701EA842EBDC002094
:104A200005EB450104EBC10108617E603C6048462E
:104A3000FBF7D2FB0020CDE770B504460026002529
:104A40000CB9002070BDFBF7C3FB0646206828B1F7
:104A50002568286920600020686128613046FBF7DE
:104A6000BBFB2846EEE72DE9F04106460C4617460B
:104A700006B11CB94FF0FF30BDE8F0814FF00008DF
:104A800017B106F10C0001E006F110000546FBF736
:104A90009FFB8046286818B92C606461246109E096
:104AA000286820612868406904612868406960615D
:104AB000286844614046FBF78FFB0020DCE72DE9C6
:104AC000F04105460F464FF00008002615B90020BA
:104AD000BDE8F08117B105F10C0001E005F110000F
:104AE0000446FBF775FB8046206808B9002618E0ED
:104AF0002668206800692168884202D10020206071
:104B00000CE02068406921680969486120680069F3
:104B1000216849690861206800692060002070618F
:104B200030614046FBF758FB3046D1E770B504468C
:104B30000D4604B115B94FF0FF3070BD0026FBF7EC
:104B400047FB06462068286125603046FBF744FB9A
:104B50000020F2E72DE9F04104460D4616460027F5
:104B600004B11DB94FF0FF30BDE8F081FBF730FB19
:104B700007461821204605F0B3FE25607008A060A6
:104B8000A068284460603846FBF726FB0020EBE76E
:104B90002DE9F04704460F4615464FF00008C14680
:104BA00004B11FB94FF0FF30BDE8F087FBF710FBF1
:104BB00080466169A068461AB54202D94FF0FF39B4
:104BC00029E0E0682844A16888420FD9D4E90201AD
:104BD000461AE268216888183246394605F0DFFD3A
:104BE000AA1BB919206805F0DAFD06E0E268216821
:104BF00088182A46394605F0D2FDE0682844E0606E
:104C0000D4E90210B0FBF1F201FB1200E060606930
:104C10002844606100BF4046FBF7DEFA4846C3E720
:104C20002DE9F04104460D46002714B90020BDE8E7
:104C3000F081606908B90020F9E7FBF7C9FA074677
:104C4000D4E904010844A168884211D92169A06807
:104C5000461A23692268D1183246606805F09FFD24
:104C600063699A1BD4E90013981905F098FD06E0D2
:104C70002669236899196269606805F090FDD4E996
:104C8000040108442061A1682069B0FBF1F201FB36
:104C9000120020610DB16069286000206061384613
:104CA000FBF79AFA6068C2E72DE9F041064604274F
:104CB00001F029FD01F093FF04466EB1FE4961EA5F
:104CC00004050846A043884217D001F0E6FD2846B7
:104CD00001F0A3FE00F00BFBF7482043C543F64963
:104CE000C94344EA0100401C38B101F0D6FD15B1BA
:104CF000284601F092FE00F0FAFA01F010FDBDE83E
:104D0000F0812DE9F74F044690460426DDF804B003
:104D100028F00300404502D0701FBDE8FE8FA40AB2
:104D2000A40204EB080901F0EEFC08F2FF304FEAA0
:104D3000902A352001F082FF002707E04FF48061C0
:104D400001FB074001F024FD06467F1C574501D2B8
:104D5000042EF3D0042E00D026E02546002708E0DC
:104D600038467F1C5BF82010284601F0E1FD06461E
:104D70002D1D4D4501D2042EF2D0042E00D013E09B
:104D800025460426002708E02A6838467F1C5BF881
:104D90002000824200D002262D1D4D4501D2042E56
:104DA000F2D101F0B0FC00BF042E02D04FF0FF3072
:104DB000B3E70020B1E770B5044634B10C252A46AC
:104DC000BE49204605F030FD00BF70BD2DE9F04121
:104DD00007460026BA4D002415E055F82400401C73
:104DE00078B9601C55F82000401C50B9A01C55F83B
:104DF0002000401C28B9E01C55F82000401C00B9D8
:104E000003E0361D641CBE42E7D300BF3146AC4808
:104E1000FFF7D6FCBDE8F0812DE9FF4104460D46C1
:104E200016461F4604B125B94FF0FF3004B0BDE867
:104E3000F08195E807008DE8070003964FB19DE8E3
:104E40000F0084E80F006A4604212046FFF7ECFCBF
:104E500006E09C4820606A4601212046FFF7E4FCFA
:104E60000020E3E72DE9F0438BB006460F461546D8
:104E700026B94FF0FF300BB0BDE8F0834FF00409C6
:104E8000E84696E80F0001AC0FC417B18E480090B9
:104E900009E08C4800900020CDE9065001AA0221CB
:104EA00006A8FFF7C1FC00200890002405E058F890
:104EB0002410089848400890641C082CF7D301F08F
:104EC00022FC342001F0BAFE804801F061FC8146EA
:104ED000E846002410E058F824107C4A02EB8400D5
:104EE00001F026FD8146B9F1040F04D001F017FC52
:104EF0004FF0FF30BFE7641C0A2CECD301F00FFC2D
:104F00000020B8E72DE9F04387B0054688466F4C8E
:104F10006F480068401CB0B96E48FFF74CFF4FF077
:104F2000FF30FFF753FF6A490860002308466949CC
:104F300002686948FFF770FF012365486549026808
:104F40006648FFF769FF6648007800287CD15D4914
:104F50002068884203D05C492068884267D1DFF826
:104F60006C910027002603E059F826004740761C84
:104F7000082EF9D3206AB84258D152492068884295
:104F800038D1554800686168884224D1D4E90601C7
:104F9000CDE90401221D6FF0010104A8FFF744FCD4
:104FA0000020DDE90421D2F10302884103D204206C
:104FB0004B4908700EE0484B0FCB8DE80F00049969
:104FC0004A1C4FF000016846FFF74CFF012044499E
:104FD000087000BF2AE0404B0FCBCDE90423CDE998
:104FE00002010422002102A8FFF73CFF04203C49F3
:104FF00008701BE01022211D384805F085FB18B908
:1050000003203749087011E0334BD3E901211868B8
:10501000DB68CDE90413CDE902020422002102A8D5
:10502000FFF720FF04202E49087000BF0CE02A4B38
:105030000FCB02AE0FC60022114602A8FFF712FFE7
:1050400001202749087000BF25480078012831D188
:105050002448016824480068FFF7C0FA44F620613C
:10506000884227D9D4E90601CDE90401201D0FC8E3
:105070008DE80F001B4800681B490860221D6FF077
:10508000010104A8FFF7D0FB0498421C4FF0000177
:105090006846FFF7E7FE0020DDE90421D2F10302B4
:1050A000884102D204200E49087015B14146022001
:1050B000A84700BF0A4819E0F8FFFF01E8F7FF1F03
:1050C0000030000867452301EFCDAB89009001084F
:1050D00008010020A00C0020BC0C0020AC0C00201B
:1050E00000010020F40000200401002000780428C2
:1050F00021D11022211D844805F006FB28B9032088
:105100008249087007B0BDE8F08315B1414604201C
:10511000A8477F4801687F480068FFF75FFA44F6B8
:105120002061884207D97A4800687A49086015B139
:1051300041460520A84700BFE4E770B504460425B2
:1051400001F0E1FA00BF342001F078FD01F0A5FB89
:105150000546042D00D005E021466F4801F039FCDA
:10516000054600BF00BF01F0DAFA042D01D100208E
:1051700070BD4FF0FF30FBE767480078704770B5AF
:1051800086B0142101A805F0ABFB002501AE142266
:10519000624901A805F048FBBDF804004AF2A55198
:1051A000884200D02BE0002404E036F814002844A4
:1051B00085B2641C082CF8D3BDF81400A8421DD198
:1051C000BDF8060056490880BDF80800554908801A
:1051D000BDF80A0054490880BDF80C005349088006
:1051E000BDF80E0052490880BDF8100051490880F2
:1051F000BDF812005049087006B070BD00BF08200D
:105200004749088040F236604649088040F6F6106B
:10521000454908802820454908804FF47D6044496D
:10522000088030204349088001204349087000BFAE
:10523000E2E72DE9F04186B04FF00408142101A8FF
:1052400005F04EFB002501AE344F4AF2A550ADF8F3
:10525000040033480088ADF8060032480088ADF8F5
:10526000080031480088ADF80A0030480088ADF8E1
:105270000C002F480088ADF80E002E480088ADF8CD
:1052800010002D480078ADF81200002404E036F834
:105290001400284485B2641C082CF8D3ADF81450CF
:1052A00001F031FA342001F0C9FC1C4801F070FA19
:1052B0008046002410E036F81410384601F06BFBED
:1052C0008046B8F1040F05D001F029FA002006B09D
:1052D000BDE8F081BF1C641C092CECD301F01FFA5F
:1052E0000120F4E7024610880B88C01A7047134863
:1052F000006800F4E06012490843001D0F4908608F
:10530000BFF34F8F00BFFEE7AC0C00200001002070
:10531000F40000200401002004F8FF1F00F0000842
:1053200016000020180000201A0000201C00002099
:105330001E00002020000020A20000200CED00E054
:105340000000FA0500B587B004A802F081FC6846A9
:1053500002F087FC0121C80202F016F88220ADF8A5
:10536000140040F26710ADF810000020ADF81600F0
:10537000ADF8120004A9814802F03EF901217F48EE
:1053800002F05CFF6020ADF800000120ADF80200E3
:105390006420ADF806000220ADF8080069467748A1
:1053A00002F067F90121754802F08EFC07B000BDDC
:1053B00008B54FF48070ADF8000018208DF8030098
:1053C00003208DF8020069466D4801F0BBFC08BD62
:1053D00008B54FF48070ADF8000010208DF8030080
:1053E00003208DF802006946654801F0ABFC0022FD
:1053F0004FF48071624801F056FD08BD10B5FFF70B
:10540000A1FF10BD2DE9F04104465E49A06809687E
:10541000FFF7E4F80546A088E17800FB01F6AE420C
:1054200018D2607808B9012000E0002060700746BB
:1054300037B10121514802F03BFCFFF7B9FF05E00D
:1054400000214E4802F034FCFFF7C2FFE078401C18
:10545000E07000BFE078A17888420CDD0020207069
:105460000021464802F024FCFFF7B2FF0020464925
:10547000087046490870BDE8F08170B504460D46D5
:105480001646012020706806000EA0700120E07012
:10549000A6803C480068A060012060700121374868
:1054A00002F006FCFFF784FF70BD374908707047B3
:1054B00010B53748007800B334480078012807D089
:1054C000022804D0032804D0042807D102E000BF3A
:1054D00000BF00BF2E48FFF795FF0DE000212748D1
:1054E00002F0E6FBFFF774FF002029490870264907
:1054F00008702649087000BF3FE024480078224920
:105500000978884239D02048007820490870084638
:10551000007801280DD0022804D0032810D00428D8
:105520001CD114E04FF4FA7203211948FFF7A5FFCC
:1055300022E04FF47A7201211548FFF79EFF1BE02D
:105540004FF4FA7201211248FFF797FF14E04FF46D
:10555000FA7202210E48FFF790FF0DE00021074884
:1055600002F0A6FBFFF734FF002009490870064946
:1055700008700649087000BF00BF10BD002C014034
:1055800000080140F40000200D0100200C01002063
:10559000CC0C002000B587B00121880401F001FF88
:1055A00003A802F00FFF4FF49650039003A9A948F7
:1055B00002F09FFE0121A74802F027FF4FF4806010
:1055C000ADF8080003208DF80A0018208DF80B00B4
:1055D00002A9A14801F0B6FB4FF40060ADF8080045
:1055E00004208DF80B0002A99B4801F0ABFB27209B
:1055F0008DF8040004208DF8050000208DF80600C9
:1056000001208DF8070001A800F015FC012240F2EE
:105610002551904802F005FF0121084601F0A7FE40
:1056200043F290008D49C8618A48001D48620020FD
:105630000862886201228021864802F017FF07B0C5
:1056400000BD38B58348048804F0200050B181487B
:10565000001D0088C0B20090012269468048FFF713
:1056600097FA00BF38BD10B5032308227D497E4854
:10567000FFF7A2F940227D497948FFF76BFA4022F3
:105680007B497C48FCF7C2F9FFF784FF10BDF0B5F9
:1056900085B0054600BF00270020049004A970488B
:1056A000FFF7BEFA074607B92CE028E000260020E5
:1056B00003900290002402A903ABCDE90010394603
:1056C0006C48049AFCF7B4F9064606B918E0664837
:1056D000FFF7B2F904461CB9304604F0EEFF0FE0C4
:1056E000266003986060012020720298A072012257
:1056F00021465D48FFF7B7F90020049000BFD5E7C9
:1057000000BF00BF00BF00BF00245B480078E0B1CD
:105710005248006800F0200010B905B148E048E0A8
:105720004C48008800F0400010B905B140E040E06E
:1057300010204A4948605148007A18B14F4908681A
:1057400004F0BBFF00204C49087000214648FFF7D9
:10575000B6F904465CB36068002801DD206848B9EA
:10576000207A20B1206810B1206804F0A6FF05B1AE
:105770001EE01EE03948C06920F001003749C861C9
:1057800060680862206888620846C06940F00100CD
:10579000C86101203849087018222146374805F0B1
:1057A00043F821463048FFF7C1F905B100E000E0B9
:1057B000AAE700BF00BF002401212B48FFF77FF9B3
:1057C000044614B1204605B0F0BD00BF0020FAE742
:1057D00010B5044644B1207A10B1206804F06DFF82
:1057E00021462148FFF7A2F910BD10B504461CB1AF
:1057F00021461D48FFF79AF910BD402070472DE95A
:10580000F04105460E4690461F46002415B9601E1D
:10581000BDE8F0811448FFF70FF9044614B94FF0C2
:10582000FF30F5E7256067602672002221460E48AA
:10583000FFF719F90020EBE710B5044604B910BDD5
:105840000020A0810C2060812146024802F051FD19
:1058500000BFF4E700480040000C01400000024097
:10586000EC0D0020D80C0020980D0020AC0D00207D
:10587000040E0020440E00200E0100205C0E0020CB
:1058800010B50223102294499448FFF795F840225E
:1058900093499448FFF75EF9002003F0BFFA92485D
:1058A000046800BF904801682046FEF797FE642810
:1058B000F8D3012003F0B2FA03F053FA03F00EFA22
:1058C00004F09EF810BD70B504460D462A462146E8
:1058D0008448FFF75DF970BD84480068052801D150
:1058E000012070470020FCE72DE9F04105460E46F7
:1058F00090461F460024FFF7EFFF10B9601EBDE879
:10590000F08115B94FF0FF30F9E77448FFF794F8CC
:10591000044614B94FF0FF30F1E725606760267246
:10592000002221466D48FFF79EF80020E7E770B59A
:1059300005460C46FFF7D0FF00B970BDADB1A4B16C
:10594000204604F08BFE064676B1224629463046B4
:1059500004F025FF2346032201213046FFF7C4FF50
:1059600010B1304604F0A9FE00BF00BFE5E7F8B56E
:10597000054600BF00270020009069465948FFF700
:105980004FF9074607B928E022E00024042004F07C
:1059900065FE064606B91EE05048FFF74DF804467E
:1059A0001CB9304604F089FE15E038683060266086
:1059B00004206060012020720720A072012221468D
:1059C0004648FFF750F80098001F00903F1D00BFA9
:1059D00000980428D9DA00BF00BF00BF00BF002430
:1059E00043480078A8B141480068052807D1012044
:1059F00004F098FA202802D005B146E046E03D4880
:105A0000007A18B13B49086804F057FE0020384975
:105A1000087000213148FFF752F804469CB36068D3
:105A2000002801DD206848B9207A20B1206810B133
:105A3000206804F042FE05B127E027E02B4800680B
:105A400005280AD0207A10B1206804F036FE2146DD
:105A50002248FFF76BF8B5B117E08120D4E90012B6
:105A600004F0CAFD012004F06FFA012020490870FB
:105A7000182221461F4804F0D7FE21461748FFF799
:105A800055F805B101E0FFE700E0A8E700BF00BF5F
:105A9000002401211148FFF712F804460CB12046FA
:105AA000F8BD00BF0020FBE710B5044644B1207AE2
:105AB00010B1206804F001FE21460848FFF736F8CF
:105AC00010BD10B504461CB121460448FFF72EF85E
:105AD00010BD002070470000740E0020F40F00205D
