:020000040800F2
:10000000A01A0020E1010008E9010008EB01000846
:10001000ED010008EF010008F101000800000000F8
:10002000000000000000000000000000F3010008D4
:10003000F501000800000000F70100082B4C000843
:10004000FB010008FB010008FB010008FB010008A0
:10005000FB010008FB010008FB010008FB01000890
:10006000FB010008FB010008FB010008FB01000880
:10007000FB010008FB010008FB010008FB01000870
:10008000FB010008FB010008FB010008FB01000860
:10009000E7940008FB010008FB010008FB010008D1
:1000A000FB010008FB010008FB010008FB01000840
:1000B000FB010008FB010008FB010008FB01000830
:1000C000FB010008FB010008FB010008FB01000820
:1000D000FB010008071A0008956200089B5C0008F5
:1000E0007F0E0008FB010008EF94000800F002F802
:1000F00000F05EF80AA090E8000C82448344AAF164
:100100000107DA4501D100F053F8AFF2090EBAE861
:100110000F0013F0010F18BFFB1A43F0010318473B
:1001200024BB000044BB00000A444FF0000C10F850
:10013000013B13F0070408BF10F8014B1D1108BF65
:1001400010F8015B641E05D010F8016B641E01F805
:10015000016BF9D113F0080F1EBF10F8014BAD1C55
:100160000C1B09D16D1E58BF01F801CBFAD505E073
:1001700014F8016B01F8016B6D1EF9D59142D6D3CD
:10018000704700000023002400250026103A28BFF5
:1001900078C1FBD8520728BF30C148BF0B607047F9
:1001A0001FB59DE803000AF01FFF1FBD10B510BD6D
:1001B0000AF076FF1146FFF7F3FF01F0F9FA0AF0B3
:1001C00094FF03B4FFF7F2FF03BC0AF0C5FF000081
:1001D000EFF3108072B6704780F31088704700000C
:1001E0000948804709480047FEE7FEE7FEE7FEE7CB
:1001F000FEE7FEE7FEE7FEE7FEE7FEE70448054907
:10020000054A064B70470000FF020008ED00000899
:10021000A0140020A01A0020A0160020A016002084
:100220000CB50020019000906D48006840F48030CB
:100230006B49086000BF6A48006800F40030009015
:100240000198401C0190009818B90198B0F5A06F72
:10025000F1D16348006800F4003010B10120009033
:1002600001E0002000900098012843D15D4800681B
:1002700040F010005B4908600846006820F0030069
:1002800008600846006840F0020008605448406872
:10029000534948600846406848600846406840F452
:1002A000806048600846406820F47C10486008463A
:1002B000406840F4E81048600846006840F08070EC
:1002C000086000BF4648006800F000700028F9D0C0
:1002D0004348406820F003004149486008464068B0
:1002E00040F00200486000BF3D48406800F00C004C
:1002F0000828F9D10CBD10B5FFF792FF10BD10B55D
:100300003748006840F001003549086008464068F9
:10031000354908403249486008460068334908407A
:100320002F4908600846006820F4802008600846CD
:10033000406820F4FE0048604FF41F008860FFF71B
:10034000DAFF4FF000602A4908602A48091D08605A
:1003500010BD10B5002100200022214B5B6803F086
:100360000C0121B1042906D0082928D107E0224B2D
:10037000224C236027E0204B204C236023E0184BC5
:100380005B6803F47010164B5B6803F48032022341
:1003900003EB904022B91A4B4343184C23600DE005
:1003A0000F4B5B6803F4003323B1154B4343134CED
:1003B000236003E0104B4343104C236003E00E4BDB
:1003C0000E4C236000BF00BF054B5B68C3F30313F3
:1003D0000C4CE15C094B1B68CB40084C236010BD02
:1003E00000100240002002400000FFF8FFFFF6FE70
:1003F00008ED00E00003FA0500127A00000000207A
:1004000000093D000400002038B500208DF80300ED
:1004100000240BE0F94830F81400ADF80000F8496A
:1004200051F82400694606F0EBFF641C062CF1D35A
:1004300038BD10B590B00BA806F00EF9684606F06E
:10044000A9FB4FF4004007F061FA0121084607F0CC
:10045000ECFA0121480207F0F5FAEA4806F0DAFA68
:10046000E9480090E9480190002002906020039044
:1004700000200490802005904000069080000790A6
:10048000202008900002099000200A906946DD486B
:1004900006F062FB0121DB4806F089FB00200B908F
:1004A00001208DF830008DF831004FF460200D9060
:1004B00000200E9006208DF83C000BA9D2484C3845
:1004C00006F0A7F8002409E0601CC2B2D048015D24
:1004D0000323CD484C3806F034F9641C062CF3D3C2
:1004E0000121C9484C3806F0CBF80121C6484C38E8
:1004F00006F0BBF8C4484C3806F0D9F800BFC24833
:100500004C3806F0D9F80028F9D1BF484C3806F02D
:10051000DDF800BFBC484C3806F0DDF80028F9D102
:100520000121B9484C3806F0E0F810B010BD10B504
:10053000FFF76AFFFFF77DFF0E21B6480AF0ECFCDB
:100540000E21B5480AF0E8FCB4480021016010BD56
:1005500010B501460022062091FBF0F400FB1410B8
:10056000C1B20B4604E0A94830F8130002449B1DB9
:10057000602BF8D3120990B210BD2DE9F04104466A
:10058000A71C002600202070002542E0E8B2FFF7FB
:10059000DFFF064640F68C00864218DBB6F5686F32
:1005A00003DB7F2027F8150006E0A6F68C000C215F
:1005B00090FBF1F027F8150025B9207840F00200F3
:1005C000207025E0207840F00400207020E040F208
:1005D0007470864219DCB6F5C07F03DC7F2027F8F3
:1005E000150007E040F27470801B0C2190FBF1F0C5
:1005F00027F8150025B9207840F00100207007E0A9
:10060000207840F00800207002E0002027F8150054
:100610006D1C022DBAD3207850B9607830B10E210C
:1006200020460AF079FC0120BDE8F0810020FBE7BC
:1006300060782178884216D12178002001F00302E9
:1006400032B1628823899A4202D0012062882281D5
:1006500001F00C0232B1A28863899A4202D00120D3
:10066000A2886281E0E7207860700120DCE72DE954
:10067000F0410446A71C002600202070002555E00C
:10068000A91CC8B2FFF764FF0646B6F5F66F22DC78
:1006900040F2B450864203DC7F2027F8150008E0C2
:1006A000C6F5F660C11700EB9171C1F38F0127F811
:1006B000151025B9207840F00100207035E0012D9B
:1006C00004D1207840F0080020702EE0207840F01F
:1006D0002000207029E040F62C00864222DB40F604
:1006E0002820864203DB7F2027F8150008E0A6F6C5
:1006F0002C00C11700EB9171C1F38F0127F8151081
:1007000025B9207840F0020020700EE0012D04D1C0
:10071000207840F00400207007E0207840F01000BE
:10072000207002E0002027F815006D1C032DA7D3D0
:10073000207850B9607830B10E2120460AF0ECFBE9
:100740000120BDE8F0810020FBE760782178884235
:1007500020D12178002001F0030232B16288238980
:100760009A4202D001206288228101F00C0232B14B
:10077000A28863899A4202D00120A288628101F096
:10078000300232B1E288A3899A4202D00120E28885
:10079000A281D6E7207860700120D2E71F48007858
:1007A00070472DE9F04105460520FFF7D1FE0446CC
:1007B0006F781B480088844201DB00240FE0194851
:1007C0000088844207DC1848008800EB0010C0EB6A
:1007D000C00084B203E012480088001B84B26E8817
:1007E000A64224DD301B81B20F4A108800EBD07284
:1007F000B1EB620F1ADA0020BDE8F081A4B1000865
:100800002C000020080002404C2401406802002017
:10081000B0B1000828030020360300202200002089
:100820001A00002018000020160000200CE0A01B79
:1008300081B2E64A108800EBD072B1EB620F02DAA7
:100840000020BDE8F08100BF2646E048008894FB08
:10085000F0F084B2A74208D0E0B268702870DB489C
:100860000088604368800120EBE70020E9E700B5DD
:100870008BB0D748FFF7FBFE58B102208DF804007B
:100880000E22D34903A80AF0C8FA01A800F06EFFAF
:1008900000BF0BB000BD00B58BB0CE48FFF76DFEBA
:1008A00058B103208DF804000E22CA4903A80AF0AB
:1008B000B4FA01A800F05AFF00BF0BB000BD00B5AC
:1008C0008BB0C548FFF76DFF48B100208DF80400DC
:1008D000C1480078039001A800F048FF00BF0BB0AA
:1008E00000BD2DE9F04105460420FFF731FE044626
:1008F0006F780026B9480088844201DA002403E0BA
:10090000B6480088201A84B2B5480088B3490988DF
:10091000401AA04205DAB2480088B0490988401A56
:1009200084B26E88A6420DDD301B81B2AD4A1088BC
:10093000C21700EB9272B1EBA20F02DA0020BDE801
:10094000F0810CE0A01B81B2A64A1088C21700EB10
:100950009272B1EBA20F01DA0020F0E700BF264649
:10096000A048008894FBF0F084B2642C00DD64247D
:10097000BC4205D0E0B2287068706E800120DEE7CE
:100980000020DCE798484078704700B58BB0964867
:10099000FFF7A7FF48B104208DF8040092480078C3
:1009A000039001A800F0E2FE00BF0BB000BD70B5DF
:1009B00002460B460024002100259A4201DD00205A
:1009C00070BD981A84B2F02C01DA0020F8E7782084
:1009D00094FBF0F081B2C1EB0110A4EBC00085B232
:1009E0003B2D06DA481E81B2C1EB0110A4EBC0001A
:1009F00085B2284605EBD076C6F34F05501982B272
:100A0000C1EB011002EBC000401E83B26F480180B1
:100A100076480280764803800120D1E72DE9F84F1F
:100A200006464FF00008C246002000900EB9BDE80F
:100A3000F88F34680CB90020F9E72078012801D03C
:100A40000020F4E704F1080999F80000482801D0D3
:100A50000020ECE7002000F0F2FD01220721042035
:100A600000F080FD304600F07AFE00BF00F071FE1D
:100A7000064606B903E0304600F071FEF6E700BF17
:100A80005C48076863E05B480168384604F0C4F8D6
:100A900042F21071884204D9012000F0D0FD0020FC
:100AA000C5E700F056FE064606B950E034681CB9AA
:100AB000304600F054FE4AE02078012803D030464A
:100AC00000F04DFE43E004F10805B8F1000F1CD121
:100AD0002878372837D147480768A878022805D1F1
:100AE00001220021062000F03DFD2CE0A87801281D
:100AF00029D100221146062000F034FD0520FFF721
:100B000027FD00904FF001081DE0B8F1010F1AD148
:100B10002878362817D137480768A878022805D1E1
:100B200001221146062000F01DFD0CE0A8780128E6
:100B300009D100220121062000F014FD0520FFF755
:100B400007FD824604E0304600F009FE00BF9AE748
:100B500000BF50460099FFF72AFFB8B104F08EFE9F
:100B6000A0B100220721042000F0FCFC2148076806
:100B700000BF20480168384604F04EF8B0F57A7F8F
:100B8000F7D3012000F05BFD012050E701254FF075
:100B9000000B12E085F001052A460721042000F031
:100BA000E1FC1448076800BF12480168384604F0A9
:100BB00033F86428F8D30BF1010BBBF10A0FE9D32A
:100BC000012000F03CFD012031E70000160000206C
:100BD00028030020360300202200002020000020EF
:100BE0001E0000201C00002026000020180000200D
:100BF0001A000020100100201FB504208DF80F00FE
:100C000002208DF80E004003ADF80C0003A9F74850
:100C100006F0F6FB4FF40040ADF80C0003A9F348D2
:100C200006F0EEFB00208DF8080010208DF809007A
:100C300001208DF80A000E21022006F0F7FC4FF487
:100C40008040019001A806F01DF801208DF80100F8
:100C500000208DF8020001208DF8030028208DF877
:100C60000000684605F045FC4FF48050ADF80C00DC
:100C700003A9DE4806F0C4FB4FF40050ADF80C00A9
:100C800003A9DA4806F0BCFB0C21022006F0CEFCDA
:100C900010208DF809000002019001A805F0F2FF74
:100CA0001FBD10B5022800DB10BDC9B100EB8002EA
:100CB000CF4B03EB8202D288521C00EB8003CC4C5A
:100CC00004EB8303DA8000EB8002234603EB82020D
:100CD0005289521C00EB800304EB83035A8118E015
:100CE00000EB8002C24B03EB8202D288521E00EB63
:100CF0008003BF4C04EB8303DA8000EB80022346C1
:100D000003EB82029289521C00EB800304EB830305
:100D10009A8100EB8002B64B03EB8202518000EB1C
:100D2000800203EB8202D288B24B33F810309A4231
:100D300011DD39B1002200EB8003AD4C04EB8303DD
:100D4000DA8008E0AB4A32F8102000EB8003A84CB0
:100D500004EB8303DA8000EB8002A54B03EB8202F5
:100D60005289A54B33F810309A4206DD002200EB81
:100D700080039F4C04EB83035A8100EB80029C4B61
:100D800003EB820292899D4B33F810309A4206DDC4
:100D9000002200EB8003964C04EB83039A8100BF92
:100DA00082E72DE9F0410446022C01DBBDE8F08129
:100DB000934800EB04108068806887B2904800EB8D
:100DC0000410006880681FFA80F88D4800EB04105A
:100DD000808800EA08088A4800EB041080890740F0
:100DE000B8F1000F04D10FB9012505E0002503E09B
:100DF0000FB9002500E001258248005D08B185F0AB
:100E0000010529462046FFF74CFF04EB8400784992
:100E100001EB800006697C48006804EB8401744A99
:100E200002EB8101086178480168304603F0F4FE66
:100E30000646FA2E07D9012004EB84016C4A02EB26
:100E40008101888019E04EB14FF4FA70B0FBF6F0E2
:100E500004EB8401664A02EB8101888004EB840084
:100E6000634901EB80008088502806DD502004EBA8
:100E700084015F4A02EB8101888000BF96E710B5CC
:100E80004FF4804005F064FF70B10024FFF7A0F933
:100E9000044601205D4908702046FFF79DF94FF494
:100EA000804005F066FF00BF4FF4805005F050FF12
:100EB00070B10024FFF78CF90446012053494870B3
:100EC0002046FFF789F94FF4805005F052FF00BF2C
:100ED00010BD10B5FFF790FE00241AE004EB84016A
:100EE000434A22F82140002004EB840102EB8101F7
:100EF000C88004EB840102EB8101088104EB8401CA
:100F000002EB8101488104EB840102EB81018881BD
:100F1000641C022CE2D310BD0146C8880A899042A5
:100F200003D0C8880881012070470020FCE770B515
:100F300004460026022C02DD4FF6FF7070BD04EB64
:100F400084002B4901EB8000C088401C85B2FFF76C
:100F50003FF90646274830F81400A84200DA002579
:100F600004EB8400224901EB8000058104EB84003E
:100F700001EB8000C5803046FFF72EF92846DDE7FB
:100F8000014601EB81001A4A02EB8000008970479C
:100F900070B504460D460026022C02DD4FF6FF70A8
:100FA00070BD144830F81400A84202DA114830F835
:100FB0001450FFF70DF9064604EB84000C4901EBD1
:100FC0008000058104EB840001EB8000C580304681
:100FD000FFF702F92846E3E730B58BB000200A900E
:100FE0000025FFF7F5F80546002433E00010014026
:100FF00044030020D8B10008DCB10008E0B10008CB
:10100000B8B10008E4B1000810010020440000203D
:101010004048005D20B13F48005D401C3D490855F7
:101020003C48005D032809D101200AA908553A4827
:10103000005D68B900203749085509E03548005D72
:101040001C2805D100203349085502200AA908555B
:10105000601CC4B2022CDBDB2846FFF7BDF800247D
:1010600036E00AA8005D012803D12046FFF799FE6B
:101070002CE00AA8005D022828D104EB8400274A4E
:1010800002EB8000408808B1012000E0002001460A
:101090002046FFF706FE04EB8400204901EB8000A8
:1010A000C0884FF6FE71084004EB84011B4A02EB36
:1010B0008101C88004EB8400114601EB8000C088E8
:1010C000401E04EB840102EB81010881601CC4B264
:1010D000022CC6DB002418E004EB84010F4A02EB6B
:1010E0008100FFF719FF78B105208DF8040004EBAB
:1010F00084000A4A02EB8001142203A809F0D2FE00
:1011000001A800F033FB00BF641C022CE4D30BB039
:1011100030BD000044000020E6B100084403002078
:101120002DE9F041024692F8644004F007060020E1
:1011300009E0FE4C215CFE4C34F81140FD4D55F8A1
:1011400021502C61401C0A28F3D3002339E0F74FCB
:10115000F95CF74F37F81170DFF8D8C35CF821C09D
:10116000CCF81470002000E0401C7828FCD3002448
:10117000002013E0F04F57F82070BF68DFF8BCC3C1
:101180003CF810C007EA0C050DB1012700E000276C
:101190003D4605FA00F72743BCB2401C0828E9D3B6
:1011A00006EB860802F1140707EB4807FC54E04FF2
:1011B00037F81170DFF87CC35CF821C0CCF81070F0
:1011C0005B1C0A2BC3D3546E641C5466BDE8F081CB
:1011D000F0B503460C46FF250026002118E000224A
:1011E0000FE001EB810003EB4000875C481C00EB43
:1011F000800003EB4000805C874201D0761C02E057
:10120000521C0A2AEDDB00BF0A2A00D10D46491CF8
:101210000729E4DB052E01DD0020F0BD082D01DBF0
:101220000020FAE705EB850003EB40000768276024
:1012300047686760008920810120EEE72DE9F05FB3
:10124000804698F8640000F0070007287DD14146E9
:1012500008F11400FFF7BCFF8346BBF1000F02D179
:101260000020BDE8F09FC14608F10A0A08F16807AE
:10127000002400255DE00020002119F805201AF85F
:10128000053082EA030019F805201AF8053002EA51
:10129000030158B3002627E00122B240024012B3F6
:1012A000082C00DB48E0F02202EA051206F00F03EA
:1012B0001A4307EB84035A70A14A02EBC502925D00
:1012C00007F8242019F805200123B3401A4022B161
:1012D000022207EB84039A7003E0012207EB8403E8
:1012E0009A70621CD4B2761C082ED5DB01B300269E
:1012F0001CE00122B2400A40BAB1082C00DB1BE01E
:10130000F02202EA051206F00F031A4307EB8403EA
:101310005A708B4A02EBC502925D07F82420EE2238
:1013200007EB84039A70621CD4B2761C082EE0DBB3
:101330006D1C0A2D9FDB00BFD9F80000CAF8000021
:10134000D9F80400CAF8040000E005E0B9F8080084
:10135000AAF80800204684E7002082E738B5032079
:101360008DF8020010208DF80300002412E073486D
:1013700030F81400ADF800006F4951F824006946B8
:1013800006F03EF86D4830F814006B4951F824100F
:101390004861641C082CEAD300BF28208DF80300A4
:1013A00000240BE0654830F81400ADF800006249F5
:1013B00051F82400694606F023F8641C082CF1D388
:1013C00000BF38BD38B503208DF8020010208DF81D
:1013D000030000240BE05B4830F81400ADF8000077
:1013E000594951F82400694606F00AF8641C082C93
:1013F000F1D338BD38B503208DF8020010208DF8E8
:10140000030000240BE04A4830F81400ADF8000057
:10141000484951F82400694605F0F2FF641C0A2C83
:10142000F1D300240BE0424830F81400ADF800007E
:10143000404951F82400694605F0E2FF641C0A2C7B
:10144000F1D338BD002007E03E4931F810103E4A84
:1014500052F820205161401C0828F5D37047002025
:1014600007E0334931F81010324A52F82020116158
:10147000401C0A28F5D37047002007E02C4931F8BA
:1014800010102C4A52F820201161401C0A28F5D374
:10149000704710B5FFF7F0FFFFF7E1FF10BD2DE932
:1014A000F04105460A21E868B0FBF1F201FB1206A3
:1014B000AF5DFFF7C7FFFFF7D2FF00240BE001206D
:1014C000A040384030B11F4830F814001E4951F890
:1014D00024100861641C082CF1D3154830F816005C
:1014E000144951F826104861701CE860BDE8F0818D
:1014F00010B5FFF733FFFFF765FFFFF77BFFFFF73F
:10150000C8FF8821114809F029FD11480021016018
:1015100041608160C1600A210E4809F01FFD0E483C
:1015200000210160416001810A2117E084B20008B6
:1015300040B2000818B20008E8B1000808B200087C
:101540004D00002074B2000854B200086C03002063
:10155000F4030020040400200E040020634809F076
:10156000FDFC10BD30B50B4600F007000A24B3FBAC
:10157000F4F504FB15335E4CE1182AB10C78012513
:1015800085402C430C7004E00C7801258540AC4369
:101590000C7030BD10B5024602F007020A20B1FB04
:1015A000F0F400FB14115248435C012090401840B5
:1015B00008B1012010BD0020FCE730B50B4600F05B
:1015C00007000A24B3FBF4F504FB1533494CE1187A
:1015D0002AB10C78012585402C430C7004E00C786E
:1015E00001258540AC430C7030BD10B54248016800
:1015F0004248006803F010FBB0F5FA7F1ED90021C5
:101600000FE03B4B58183B4B5A5C4AB13C4B1B78A4
:101610001BB103781343037002E003789343037014
:10162000491C0A29EDD3344B1B68344C2360344BDE
:101630001B7883F00103324C237000BF10BD70B5DE
:101640000446002504B1FF250A212A4809F086FC3A
:101650002A460A21264809F057FC70BD10B50A2217
:101660002449224809F01EFC264821490A680260E4
:101670004A6842600989018110BD10B50A221B49E0
:101680001C4809F00FFC1A481E490A6802604A68A3
:1016900042600989018110BD10B58AB016480078F2
:1016A00000F00100D0B90024FFF7CCFE1648FFF788
:1016B00037FD1548FFF7C2FD0446002C0DDD0194EF
:1016C00001208DF80000A2000F49683102A809F03E
:1016D000E9FB684600F04AF800BF00BFFFF785FF4E
:1016E0000348FFF7DCFE0AB010BD0000180400201C
:1016F000F403002004040020100100204800002012
:101700004C0000200E0400206C03002010B50523BF
:1017100008222449244803F06DFC002416E0002030
:1017200004EB44011F4A02EBC101087204EB840080
:101730001E4901EBC00004EB440142F831002820AF
:1017400004EB440102EBC1014860641C082CE6D3A1
:1017500010BD10B50121144803F0CFFC10BD10B529
:1017600004462146104803F0FFFC10BD70B5044646
:10177000002504B970BD0C4803F07CFC054675B12A
:1017800028222146286809F048FB012229460648FC
:1017900003F087FC18B12946034803F0E5FC00BFBD
:1017A000E8E700006405002024060020240400204F
:1017B0000EB50025FFF7AAFF01F0E7F803F066FA7F
:1017C00003F06EFA03F0F9FF00F02FF904F074FD56
:1017D00004F075FAFFF78CFE0020FFF730FFFEF7EC
:1017E000A6FEFFF776FB04F035F903F05FFA01F08F
:1017F000DDF804F071FB0120FFF721FF5348D0F81A
:10180000008024E0FFF7A5FF044694B1204601F0D4
:10181000E8F818B14D48D0F800800AE02046FFF7FC
:10182000FDF818B14948D0F8008002E02046FFF7E3
:1018300096FF0120FFF703FF44480168404603F08C
:10184000EBF941F28831884200D901E000BFD9E7C5
:1018500000BF0120FFF7F3FE00252EE00024002644
:101860003A48D0F800806C460020206060602081FB
:10187000AA2020700720A070C020E070204600F051
:1018800031FE33480078012803D10821204600F0BA
:10189000F2FE002000F0DEF806461EB1304600F0F1
:1018A0007BF90CE06D1C00BF28480168404603F03E
:1018B000B3F9B0F57A7FF7D300BF032DCED300BFC5
:1018C0000020FFF7BCFE01F060F800BFFFF741FF0A
:1018D000044604B903E02046FFF741FFF6E700BFE6
:1018E00033E0FFF736FF0446002000F0B3F8064669
:1018F000002004F0F7FC8146002004F0F4F9824651
:10190000002004F06BFB074614B1204602F044FEB1
:101910003EB11049304600F0D1FE10B1304603F020
:101920003FF917B1384603F03BF92046FFF717FFA0
:10193000304600F031F9484604F07BFD504604F093
:1019400073FA384604F00EFC00BFCAE7100100200D
:10195000A600002090B2000800B587B001218803DE
:1019600006F070F803A807F08BF84FF416500390B8
:1019700003A9AB4807F01BF80121A94807F0A3F819
:101980004FF40070ADF8080003208DF80A0018200D
:101990008DF80B0002A9A34805F032FD4FF48060DA
:1019A000ADF8080004208DF80B0002A99D4805F051
:1019B00027FD25208DF8040004208DF80500002067
:1019C0008DF8060001208DF8070001A804F091FDB4
:1019D000012240F22551924807F081F80121084682
:1019E00006F023F843F290008F4948648C48001DAC
:1019F000C86400208864086501228021884807F0B7
:101A000093F807B000BD38B58548048804F020007D
:101A100050B18348001D0088C0B200900122694681
:101A2000824803F0D3FB00BF38BD10B5002310225D
:101A30007F49804803F0DEFA80227F497B4803F02B
:101A4000A7FB4FF480627D497D4800F0FFF8FFF767
:101A500083FF10BDF0B585B0054600BF002700200C
:101A6000049004A9714803F0F9FB074607B92CE07C
:101A700028E00026002003900290002402A903AB76
:101A8000CDE9001039466E48049A00F0F1F8064698
:101A900006B918E0674803F0EDFA04461CB9304671
:101AA00009F049F90FE02660039860600120207278
:101AB0000298A072012221465E4803F0F2FA00204B
:101AC000049000BFD5E700BF00BF00BF00BF0024E7
:101AD0005C480078E8B15448006800F4005010B940
:101AE00005B149E049E04E48008800F0400010B9D7
:101AF00005B141E041E04FF480504B494860524805
:101B0000007A18B15049086809F015F900204D49CC
:101B100008700021474803F0F0FA04465CB360689F
:101B2000002801DD206848B9207A20B1206810B172
:101B3000206809F000F905B11EE01EE03A48406C4B
:101B400020F00100384948646068886420680865AE
:101B50000846406C40F00100486401203949087093
:101B600018222146384809F09DF92146314803F0F2
:101B7000FBFA05B100E000E0A9E700BF00BF0024C8
:101B800001212C4803F0B9FA044614B1204605B0EF
:101B9000F0BD00BF0020FAE710B5044644B1207A3A
:101BA00010B1206809F0C7F82146224803F0DCFA9A
:101BB00010BD2DE9F04105460E4690461F46002413
:101BC00015B9601EBDE8F0811A4803F053FA0446C7
:101BD00014B94FF0FF30F5E72560676026720022E8
:101BE0002146144803F05DFA0020EBE710B50446E7
:101BF0001CB121460F4803F0B7FA10BD4FF48060C6
:101C0000704710B5044604B910BD0020A0810C2017
:101C100060812146024806F0CAFE00BFF4E70000DA
:101C20000038014000080140000002404C0800203C
:101C300038060020B8070020CC07002064080020E8
:101C4000640C00209D0000207C0C002070B5044630
:101C50000E4615460CB106B115B94FF0FF3070BDF8
:101C60001821204609F07AF9266065600020F6E721
:101C70002DE9FF4F8DB0044691469A46DDF8688005
:101C8000002700200C9014B1BAF1000F03D14FF0DF
:101C9000FF300C9023E221696068401A484502D267
:101CA0004FF0FF300C90B9F1000F2ED00E9818B9FC
:101CB0004FF0FF300C90EDE7A06800EB090660687C
:101CC000B04214D2D4E90101451AA26821688818EB
:101CD0002A460E9909F0A1F8A9EB05020E9B5919A5
:101CE000206809F09AF8A9EB0500A06009E0A26855
:101CF000216888184A460E9909F08FF8A068484470
:101D0000A06020694844206100BF00BF00200B9004
:101D10000025BDE3E06828440A9061680A98B0FB9A
:101D2000F1F201FB12000A9021680A98085C099000
:101D30000998AA287DD10026002008902069401B20
:101D400007900798072806DB606928B1A08AC0F3CE
:101D50000726207D089085E0E26850192168821CE2
:101D60006368B2FBF3FC03FB1C228A5C042A78D173
:101D7000C21C6368B2FBF3FC03FB1C228A5C002AD2
:101D80006FD1421D6368B2FBF3FC03FB1C228E5C27
:101D9000821D6368B2FBF3FC03FB1C228A5C089281
:101DA000079A082A5DDBD4F80CC0AC44CDF818C003
:101DB00005F1070CD4F80CB00CEB0B034FF0000C42
:101DC000CDF814C0069A10E0D4F804C0B2FBFCFBB6
:101DD0000CFB1B2CD4F800B01BF80CC0DDF814B0C1
:101DE0008CEA0B0CCDF814C0521C9A42ECD3D4F8F8
:101DF00004C0B3FBFCFB0CFB1B3CD4F800B01BF88D
:101E00000CC0CDF810C0DDE904CBE3451BD005F1D3
:101E1000010CD4F810B0ABEB0C0CC4F810C005F1F9
:101E2000010CD4F80CB0DC44C4F80CC0D4F80CC0DD
:101E300000E03FE1D4F804B0BCFBFBFE0BFB1ECC82
:101E4000C4F80CC028E3F6B2DDF820C00CF0FF0C9B
:101E5000CDF820C0DDF820C00CEB062CC4F814C06F
:101E600000BF00BFF6B20898C0B20890089800EB17
:101E7000062608366068B6EB500F11D9681C216938
:101E8000081A2061681CE1680844E0606168E06845
:101E9000B0FBF1F201FB1200E0600020606108E19C
:101EA0000798864275DC082E75D1002006900196B1
:101EB000019808F011FF07461FB94FF0FF300C9052
:101EC00007E30597E06828440390701E2844E16802
:101ED000084402900398049015E061680498B0FBF0
:101EE000F1F201FB1200216811F800B0069880EAB7
:101EF0000B000690059880F800B00598401C0590EE
:101F00000498401C0490029904988842E5D36168C3
:101F10000298B0FBF1F201FB1200216811F800B049
:101F2000069858451FD101200B90059880F800B005
:101F3000216901982844081A2061E0684119019834
:101F40000844E0606168E068B0FBF1F201FB120058
:101F5000E0600198CAF80000B8F1000F18D0012025
:101F6000C8F8000014E0384608F0E5FE0027681CB9
:101F70002169081A2061681CE1680844E060616812
:101F8000E068B0FBF1F201FB1200E060002060614C
:101F90008FE07FE0FFE70596059808F09DFE074675
:101FA0001FB94FF0FF300C9093E2E068284461685D
:101FB000B0FBF1F201FB120B7019E1680844616893
:101FC000B0FBF1F201FB120006900698584507D9C4
:101FD000206800EB0B013246384608F01EFF11E086
:101FE0006068A0EB0B000290206800EB0B01384604
:101FF000029A08F012FF029BF21AF818216808F002
:102000000CFF00BF00206061A6F10A0081B207F159
:10201000080002F00BFF049000200390B819811E05
:10202000022203A802F0DEFEBDF80C1004988142E3
:102030001CD101200B90216905982844081A2061C1
:10204000E068411905980844E0606168E068B0FB09
:10205000F1F201FB1200E0600598CAF80000B8F147
:10206000000F16D00120C8F8000012E0384608F032
:1020700062FE0027681C2169081A2061681CE1685B
:102080000844E0606168E068B0FBF1F201FB120017
:10209000E0600EE02069401B2061E0682844E060B9
:1020A0006168E068B0FBF1F201FB1200E060012022
:1020B0000B90F1E10998FA2870D12069A0EB050B8B
:1020C000BBF1070F6BDB00200890072003900398FB
:1020D00008F002FE07461FB94FF0FF300C90F8E100
:1020E0003E46E06828440590A81DE1680844049035
:1020F000059806900FE060680699B1FBF0F200FBCE
:1021000012102168085C07909DF81C0006F8010B6E
:102110000698401C0690049906988842EBD302204A
:10212000069009E00698385C9DF820100844C0B27B
:1021300008900698401C069006980628F2D360681E
:102140000499B1FBF0F200FB12102168085C0790C3
:102150009DF820009DF81C10884221D101200B9091
:102160009DF81C003070206903992944401A2061B1
:10217000E068284403990844E0606168E068B0FBC7
:10218000F1F201FB1200E0600398CAF80000B8F118
:10219000000F18D00520C8F8000014E024E013E078
:1021A000384608F0C8FD0027681C2169081A20611C
:1021B000681CE1680844E0606168E068B0FBF1F227
:1021C00001FB1200E0600EE02069401B2061E06826
:1021D0002844E0606168E068B0FBF1F201FB1200A6
:1021E000E06001200B9057E1099800F0F000802892
:1021F00079D12069401B08900898032874DBE068B7
:1022000028440790D4E9031000EB010B002006904E
:102210000798861C0DE06068B6FBF0F100FB1160CA
:102220002168085C06900698FF2801D1B34602E0B9
:10223000761C5E45EFD300BF0698FF2855D107985E
:10224000ABEB0000401C102810D90027681C216946
:10225000081A2061681CE1680844E0606168E06871
:10226000B0FBF1F201FB1200E06063E00798ABEB1A
:102270000000401C0490049808F02EFD07461FB98A
:102280004FF0FF300C9024E1059701200B90079E42
:102290000CE06068B6FBF0F100FB11612068415C66
:1022A000059801700598401C0590761C5E45F0D994
:1022B000216904982844081A2061E06841190498AB
:1022C0000844E0606168E068B0FBF1F201FB1200D5
:1022D000E0600498CAF80000B8F1000F02D00420B2
:1022E000C8F8000026E036E025E00798ABEB0000D8
:1022F000102810D30027681C2169081A2061681C67
:10230000E1680844E0606168E068B0FBF1F201FB5D
:102310001200E0600EE02069401B2061E068284464
:10232000E0606168E068B0FBF1F201FB1200E06080
:1023300001200B900EE02069401B2061E0682844DA
:10234000E0606168E068B0FBF1F201FB1200E06060
:1023500001200B90A0E00998A52871D12069A0EB7D
:10236000050BBBF10B0F6CDB002008900B200390DA
:10237000039808F0B1FC07461FB94FF0FF300C90EE
:10238000A7E03E46E0682844059005F10A00E168B0
:1023900008440490059806900FE060680699B1FB28
:1023A000F0F200FB12112068405C07909DF81C00C1
:1023B00006F8010B0698401C06900499069888427E
:1023C000EBD30120069009E00698385C9DF82010B8
:1023D0000844C0B208900698401C069006980A2847
:1023E000F2D360680499B1FBF0F200FB121021688F
:1023F000085C07909DF820009DF81C10884221D1B0
:1024000001200B909DF81C0030702069039929442D
:10241000401A2061E068284403990844E06061683C
:10242000E068B0FBF1F201FB1200E0600398CAF82B
:102430000000B8F1000F18D00620C8F8000014E022
:1024400024E013E0384608F076FC0027681C216978
:10245000081A2061681CE1680844E0606168E0686F
:10246000B0FBF1F201FB1200E0600EE02069401BBE
:102470002061E0682844E0606168E068B0FBF1F248
:1024800001FB1200E06001200B9005E000BF6D1C15
:102490002069A8423FF63EAC00BF2069A8420FD198
:1024A0000B9868B900202061E0682844E06061680A
:1024B000E068B0FBF1F201FB1200E0600020606117
:1024C0000B9800B103E0206900283FF71FAC00BF64
:1024D00000BF1B9810B11B990C980860384611B0CA
:1024E000BDE8F08F10B501460B78FD4C24680CB1A7
:1024F000092200E00722012002E00C5C6340401C3E
:102500009042FADB0B5410BD2DE9FF4381B08846A1
:10251000DDF830900024B8F1000F03D1002005B0A1
:10252000BDE8F083DDE9030100FB01F707F11006C8
:10253000304608F0D1FB04460CB90020EFE73146E5
:10254000204608F0E9FCAA2020700420A07000209A
:10255000E070A6F10800009002226946601D02F0BA
:1025600041FC2046FFF7BEFF04F10805022201A945
:10257000284602F037FC022203A9A81C02F032FC14
:10258000022204A9281D02F02DFC3A464146A81D4E
:1025900008F043FCB81D81B2284602F047FC0090C9
:1025A000A91DC8190222694602F01CFCB9F1000FEE
:1025B00001D0C9F800602046B1E7F8B506460F46DD
:1025C00014461D4623460122394630460095FFF742
:1025D0009BFFF8BD70B505460C46ADB1A4B12046D1
:1025E00008F07AFB064676B122462946304608F0C6
:1025F00014FC2346052201213046FFF7DAFA10B118
:10260000304608F098FB00BF70BD70B505460C461B
:10261000ADB1A4B1204608F05FFB064676B1224674
:102620002946304608F0F9FB2346052201213046B1
:1026300003F016FF10B1304608F07DFB00BF70BDFF
:1026400070B505460C46ADB1A4B1204608F044FB78
:10265000064676B122462946304608F0DEFB234680
:1026600005220121304603F0F6FB10B1304608F098
:1026700062FB00BF70BD70B504460D46294620467A
:10268000FFF7A8FF29462046FFF7BFFF70BD3EB504
:1026900004460D4603F04DFC78B1924A07CA8DE816
:1026A00007002A4621460DF1010008F0B6FB04227E
:1026B0001146684603F06AFC00BF3EBD2DE9F04FAD
:1026C0008FB007460C4601200E901FB9801E0FB038
:1026D000BDE8F08F3D682878AA2802D04FF0FF307F
:1026E000F5E7A8780C287AD1E878802878D10020FE
:1026F0000C900D9000260B904FF001094FF0010A4D
:102700008346AA208DF830000C208DF832008020FE
:102710008DF8330001208DF83400A8790D2860D29F
:10272000DFE800F05F0708165F245F5F5F385F3AFD
:102730004B0000BFA8798DF83600082008F0CCFACD
:10274000064616B94FF0000950E008200B904DE006
:1027500008A802F04EFE4FF0000A0BAB0C2208A9AD
:1027600048F20300FFF729FF06463FE000200A90E9
:102770002CB1206918B12069804780B20A904FF0CF
:10278000000A0BAB02220AA948F20500FFF715FF69
:1027900006462BE002F024FA4FF0FF300A9002F0D8
:1027A00033FE0A904FF0000A0BAB04220AA948F24C
:1027B0000B00FFF702FF064618E00FF22C184FF04F
:1027C000000A404608F00AFB401C0BAB024641469B
:1027D0000A9048F20C00FFF7F0FE064606E030E0F3
:1027E000CCE04FF0000900200E9000BF00BFB9F10F
:1027F000000F20D0FEB1BAF1000F06D00CA8FFF7F1
:1028000071FE0C9830600D9870601CB9304608F06D
:1028100092FA10E0606918B9304608F08CFA0AE0C4
:10282000D4F814C00522012130460B9BE04710B1BB
:10283000304608F080FABBF1000F01D002F0D0F969
:102840009CE0A878042874D100200D9080460E905A
:102850000222691D0DA802F0C5FA05F108060D98BF
:10286000801E0D9083E04FF0000900200C904FF087
:10287000010A0B900A900990022231460BA802F03F
:10288000B1FA0222B11C0AA802F0ACFA0222311DF0
:1028900009A802F0A7FABDF82C00A0F500400A38FC
:1028A000E8B906F1060B01A802F0A3FD4FF0FF30D6
:1028B00002F0AAFD0090012301A904A8009A02F0E9
:1028C000C9FD1022594604A808F05CFAB0B90020EE
:1028D00008900022012104A802F0E2FD11E01BE0B3
:1028E0001401002064B3000859415F424A5A535F03
:1028F0004B45595F31383130313700004FF0FF30F0
:1029000008900CAB042208A948F20A00FFF755FE14
:10291000814601200E9000E000BF00BFBAF1000F19
:1029200019D0B9F1000F16D024B9484608F003FABF
:1029300011E021E0606918B9484608F0FCF90AE0A6
:10294000D4F814C00522012148460C9BE04710B181
:10295000484608F0F0F9BDF82800BDF824104843B7
:10296000801D804405F1080000EB080600BF0D98AB
:102970008045FFF478AF01E000200E900E9808B17A
:102980000020A4E64FF0FF30A1E60020F7490870D0
:102990000120F74908700020F6490870F6490870D0
:1029A000F64908700120F649087070477047704773
:1029B000704701460022012003E00B5C1344DAB2A9
:1029C000401C0628F9DB0A5470470146002201200A
:1029D00003E00B5C1344DAB2401C0A28F9DB0A540A
:1029E00070472DE9F04F9BB08146E6A000681A9031
:1029F000E548006819902022E349091D11A808F054
:102A000051FA4022E049243101A808F04BFA4FF076
:102A1000000AB9F1000F03D100201BB0BDE8F08F10
:102A2000D9F800600EB90020F7E73078012801D00E
:102A30000020F2E706F108074FF0FF34002507E019
:102A400038781AA9495D884201D12C4602E06D1CF4
:102A5000022DF5D300BF601C08B90020DDE700207F
:102A6000FEF7EDFDC9480068009093E0002E63D0AA
:102A700006F10807BAF1000F1CD138781AA9095DD0
:102A8000884259D1C14800680090B87802280CD11A
:102A90000020FEF7D4FD19AA12F8141032F8142001
:102AA000100A0122FEF75EFD46E0B878012843D106
:102AB000824641E0BAF1010F3ED14FF0FF380025C8
:102AC00009E0387811A901EB0411495D884201D170
:102AD000A84602E06D1C102DF3D300BF08F10100E1
:102AE00048B3AA4800680090B87802280ED101AA1D
:102AF00002EB441212F8181001AA02EB441232F849
:102B00001820100A0122FEF72DFD14E0B8780128E4
:102B100011D101AA02EB441212F8181001AA02EB1B
:102B2000441232F81820100A0022FEF71BFD601C28
:102B300008EB001A2FE000BF4846FEF710FE4FF0EA
:102B4000000992480168009802F066F841F2883165
:102B5000884204D90020FEF772FD01205DE70026BF
:102B6000FEF7F7FD8146B9F1000F00D112E0D9F868
:102B700000602EB94846FEF7F2FD4FF0000909E06B
:102B80003078012805D04846FEF7E9FD0026B14619
:102B900000E000BF6AE700BF4846FEF7E0FDBAF17B
:102BA000020F6BD3AAF110001F282CD2DFE800F02F
:102BB00010142B2B2B2B2B2B2B2B2B2B2B2B2B2B97
:102BC00018191A1B1C1D1E1F202122232425260034
:102BD00001206F49087017E008206D49087013E064
:102BE00000BF00BF00BF00BF00BF00BF00BF00BFED
:102BF00000BF00BF00BF00BF00BF00BFAAF12000A0
:102C00006449087000E000BF00BF02F037FEA0B1C9
:102C10005E48006800900120FEF711FD00BF5B4890
:102C20000168009801F0F8FF40F2DC518842F6D3C9
:102C30000020FEF704FD0120EFE64FF001084FF001
:102C4000000B17E088F0010819AA12F8141032F8E6
:102C50001420100A4246FEF785FC4C48006800909C
:102C600000BF4A480168009801F0D6FF6428F8D3F5
:102C70000BF1010BBBF10A0FE4D300BF0020FEF7FC
:102C8000DEFC0020C9E62DE9F04105460E46174658
:102C9000002409E015F8141035F81420100A3A46FB
:102CA000FEF760FC601C84B2B442F3DBBDE8F08147
:102CB000F8B507460E4638A00068009000242CE0C6
:102CC000002527E0042000FB045047FA00F000F044
:102CD000010050B1601C1DF800006A000121914004
:102CE0000843C1B2601C0DF80010042000FB045022
:102CF00046FA00F000F0010058B1601C1DF8000019
:102D0000012101EB450291400843C1B2601C0DF85E
:102D100000106D1C042DD5D3641C022CD0D39DF85B
:102D200000009DF8011048409DF8021048408DF8C1
:102D3000030004216846FFF783FCF8BD2DE9F0414C
:102D400004460D4616461F46072C01DDBDE8F081FE
:102D500016B10020114908703DB1104800780121DA
:102D6000A14008430D49087021E019E0A0000020AF
:102D7000A100002014000020A2000020A3000020D9
:102D8000A50000202A1E000070B3000810010020DA
:102D9000A6000020A7000020FC000000A8000020E2
:102DA000FC4800780121A1408843FA49087027B106
:102DB000F84A51781078FFF77BFF00BFC6E72DE98E
:102DC000F04104460D4616461F46072C01DDBDE8BE
:102DD000F08116B10020EF4948703DB1ED484078D0
:102DE0000121A1400843EB49487006E0E9484078DA
:102DF0000121A1408843E749487027B1E54A51784D
:102E00001078FFF755FF00BFE1E72DE9F0470746CF
:102E10004FF0000844E107F1080000EB8806B078A5
:102E2000EE2800D13AE13578DB4C0020206060606C
:102E30002081AA202070D948007860700720A070F7
:102E4000B078012800D120714C2D79D2DFE805F04F
:102E500078262B30313738393A43444A4B4C4D575A
:102E600058595A5B5C6B6C6D6E797A7B7C7D838480
:102E7000858687888E8F90919293999A9B9C9D9E30
:102E8000A4A5A6A7A8A9AFCAF9FAFBFCFDFEFFE915
:102E9000E8E7E6E5E4E3E2E1E0DFDEDD4720E070DD
:102EA00002206071F1E04720E07000206071ECE0EA
:102EB00000BF4720E07005F13D006071E5E000BF14
:102EC00000BF00BF4020E070207940F0100020716A
:102ED000681F6071D9E000BF4C20E07005F1570019
:102EE0006071D2E000BF00BF00BF4020E0702079D9
:102EF00040F020002071A5F10B006071C5E000BF1B
:102F000000BF00BF00BF00BFA5F10F01C8B247213D
:102F1000E1702179421041EA0211217100F00101B2
:102F2000491D6171B1E000BF00BF00BF4020E070EB
:102F3000207940F030002071A5F115006071A4E007
:102F4000A2E000BF00BF00BF00BF4C20E07005F151
:102F50004900607199E000BF00BF00BF00BF00BF23
:102F60004820E070A5F11C0060718EE000BF00BF3A
:102F700000BF00BF00BF4820E07005F15C00607139
:102F800083E000BF00BF00BF00BF00BF4820E0706B
:102F9000A5F12200607178E000BF00BF00BF00BF54
:102FA00000BF4820E07005F1600060716DE0B0780E
:102FB00002280FD1012211460620FEF7D3FAA5F10F
:102FC000350000F0FF094FEA0970000EE0700F2095
:102FD000A07106E000202071002201210620FEF7EA
:102FE000C1FA52E0B078022823D101220021062044
:102FF000FEF7B8FAA5F1350000F0FF094FEA0970B5
:10300000000EE0700F20A0711AE037E035E033E0E9
:1030100031E02AE028E026E024E022E020E01EE083
:103020001CE015E013E011E00FE00DE00BE009E01B
:1030300007E000202071002211460620FEF792FAD8
:1030400023E000BF00BF00BF00BF00BF00BF00BF44
:103050004020E070A5F13800607116E000BF00BFAD
:1030600000BF00BF00BF00BF00BF4820E070A5F157
:103070003200607109E000BF00BF00BF4B20E0706C
:10308000A5F14700607100E008E000BF2046FFF7AF
:1030900029FA08212046FFF7EEFA00BF08F10108DF
:1030A000786840453FF6B7AE0120BDE8F0872DE9CE
:1030B000FF4104463A48007818B9002004B0BDE842
:1030C000F081354D0020286068602881AA20287092
:1030D0003248007868700720A870207AE87060890C
:1030E000C0F347002871A089C0F347006871E089E8
:1030F000C0F3C700A8712B48007818B1287940F0B8
:10310000400028712846FFF7EDF908212846FFF70F
:10311000B2FA2548007808B90120CFE723480078A3
:10312000022822D1FF208DF808001C480078401C9E
:10313000C0B28DF8090000208DF80A00207A400600
:10314000000E8DF80B006089C0F347008DF80C006D
:10315000A089C0F347008DF80D0002A8FFF729FCF5
:10316000072102A8FFF751FA33E1207A4006060E44
:1031700006F07E06094800788130C0B28DF8000064
:103180000B480078E0B906F01E0098B1012008490C
:10319000087015E0A8000020940C0020A00000207A
:1031A000A5000020A4000020A1000020A60000200F
:1031B000F600002006F0600010B10220E749087018
:1031C000E6480078012828D1E548007850B306F099
:1031D0001E0038BB01208DF8010006208DF802008A
:1031E00001208DF8030000208DF804008DF8050003
:1031F00003208DF806008DF80700FF208DF80800E9
:1032000009216846FFF701FA0020D549087006F049
:10321000400018B10220D149087062E00020CF4977
:1032200008705EE001208DF8010006208DF8020094
:1032300001208DF8030006F00600E0B16189491015
:10324000C1EBC10202EB01103F21B0FBF1F01821EC
:10325000B0FBF1F201FB1200401CC1B28DF804106A
:1032600006F0040119B101218DF8061002E00221D7
:103270008DF8061005E000208DF8040003208DF87D
:10328000060006F01800E0B1A189491001EB4102E7
:1032900002EB01103F21B0FBF1F01421B0FBF1F281
:1032A00001FB1200401CC1B28DF8051006F00801A8
:1032B00019B101218DF8071002E002218DF80710E5
:1032C00005E000208DF8050003208DF80700FF20A1
:1032D0008DF8080009216846FFF797F90120A049F9
:1032E00008709E48007802286ED19E480078D8B1B8
:1032F00006F06000C0B901208DF8010004208DF8AF
:10330000020007208DF8030000208DF80400FF2044
:103310008DF8050006216846FFF777F900209149EE
:1033200008708E4908704FE006F04000402825D113
:10333000E089C01000EB80070F20B7FBF0F70620F4
:10334000B7FBF0F100FB1177BF1C01208DF80100E5
:1033500004208DF8020007208DF8030007F13000EB
:10336000C0B28DF80400FF208DF8050006216846E4
:10337000FFF74BF901207B49087025E0E089C01078
:1033800000EB80070F20B7FBF0F70620B7FBF0F14A
:1033900000FB1177BF1C01208DF8010004208DF87F
:1033A000020007208DF8030007F12000C0B28DF85D
:1033B0000400FF208DF8050006216846FFF725F977
:1033C00001206849087000BF16B9002063490870E1
:1033D00000BF012072E670B505466348007808B961
:1033E000002070BD614C0020206060602081AA2018
:1033F00020705F48007860700720A070287AE07025
:103400006889C0F347002071A889C0F34700607144
:10341000E889C0F3C700A071207940F04000207116
:103420002046FFF75FF808212046FFF724F9012026
:10343000D7E770B505464D4C0CB9002070BD002093
:10344000206060602081AA20207049480078607068
:103450000720A0708020E070207940F0800020716B
:10346000287A60712046FFF73DF808212046FFF7D3
:1034700002F90120E2E770B505463C4C0CB900208A
:1034800070BD0020206060602081AA202070384834
:10349000007860700720A0702E8916B1012E0CD123
:1034A00004E04920E0702079207108E04920E070B4
:1034B000207940F01000207101E00020E0E700BF1B
:1034C000A87B60712046FFF70DF808212046FFF722
:1034D000D2F80120D4E770B50546244C0CB9002081
:1034E00070BD0020206060602081AA2020702048EC
:1034F000007860700620A0708020E070287A6071EB
:10350000A0712046FEF7EEFF08212046FFF7B3F832
:103510000120E5E72DE9F04F8BB080464FF0000920
:10352000F7E308F1080000EB89054FF0000A2E7858
:10353000A878EE280AD1382E02DB3F2E00DC06E008
:10354000152E02DB182E00DC01E017E200BF0AACEA
:10355000002020604F2E70D20CE00000F60000200A
:10356000F5000020F4000020A5000020940C0020AD
:10357000A0000020DFE806F06128292A2B505152D4
:10358000537F80A5A6A7A8F3F2F1F0EFEEEDECEBE8
:10359000EAE9E8E7E6E5E4E3E2E1E0DFDEDDDCDB03
:1035A000DAD9D8D7D6D5D4D3D2D1D0CFCECDCCCBF3
:1035B000CAC9C8C7C6C5C4C3C2C1C0BFBEBDBCBBE3
:1035C000BAB9B8B7B6B5B40000BF00BF00BFF7497D
:1035D00003C9CDE90801701EC7B2A878012800D13F
:1035E000E8E3F348C05D08B9012000E00020F0499D
:1035F000C8550220207007F1210060700846C05DA8
:10360000A0700B46DA5D08AB13F8171033F81730CB
:10361000180AFDF7A7FFC0E300BF00BF00BFE349E2
:10362000083103C9CDE90801E2A000680790701FC6
:10363000C7B2A878012801D1BCE3ADE30020207017
:1036400007A8C05D60700120A0700022042108A8B6
:10365000FFF719FB08AA12F8171032F81720100A02
:103660000122FDF77FFFD448077000220821D348CC
:10367000FFF709FB91E300BFCC48103000680990C8
:10368000CFA000680890A6F10900C7B20020207002
:1036900008A8C05D6070A878022801D1012000E070
:1036A0000020A070A3780BB1012300E000231A468C
:1036B00009AB13F8171033F81730180AFDF752FF4B
:1036C0006BE300BF00BF00BFB849143103C9CDE9A7
:1036D0000801A6F10B00C7B2A878012840D169E320
:1036E00059E357E340E318E316E314E312E3E8E297
:1036F000E6E2E4E2E2E2E0E2DEE2DCE2DAE249E251
:1037000047E245E243E241E23FE23DE23BE29EE145
:103710009CE174E172E170E16EE16CE16AE168E103
:1037200066E164E162E160E15EE117E115E113E168
:1037300011E10FE10DE10BE109E107E105E103E131
:1037400001E1DEE0DCE0B4E0B2E0B0E05BE059E0F3
:1037500057E055E01FE01DE01BE019E017E015E021
:103760000120207007F1610060700020A07000222D
:10377000042108A8FFF787FA08AA12F8171032F8F0
:103780001720100A0122FDF7EDFE06E300BF00BF7F
:1037900000BF00BF00BF854A1C3207CA07AB07C382
:1037A00088A00068069088A000680590A6F10F0028
:1037B000C7B24FEA670B07F00107A878012800D1CC
:1037C000F8E206A810F80B00207005A8C05D607034
:1037D0000020A07007A901EB8B0000220221FFF757
:1037E00052FA07AA02EB8B0212F8171007AA02EB93
:1037F0008B0232F81720100A0122FDF7B3FECCE24B
:1038000000BF00BF00BF6949283103C9CDE90801E5
:10381000A6F11500C7B2A878022808D16B48006845
:103820006B4941F8270000206A49C855C2E2A878D0
:10383000EE281CD16748C05DC0B9654951F8270022
:103840006249096801F0E8F9B0F5FA6F0ED9012074
:103850006049C85508AA12F8171032F81720100A44
:103860000122FDF7AAFE032002F04BF9A2E202209A
:10387000207007F1700060705648C05DA07008AA03
:1038800012F8171032F81720100A0022FDF795FEE3
:103890000022042108A8FFF7F6F908AA12F8171069
:1038A00032F81720100A0122FDF75CFE75E200BF16
:1038B00000BF3E49303103C9CDE90801A6F1190026
:1038C000C7B2A878012800D174E24348C05D08B9A6
:1038D000012000E000204049C8550220207007F177
:1038E000750060700846C05DA0700B46DA5D08ABDD
:1038F00013F8171033F81730180AFDF733FE4CE2AF
:1039000000BF2A48383000680990A6F11C00C7B2F1
:103910000020207007F178006070A878022801D19B
:10392000012000E00020A070A3780BB1012300E08B
:1039300000231A4609AB13F8171033F81730180A8A
:10394000FDF710FE29E200BF00BF00BF00BF00BFAF
:1039500000BF00BF00BF00BF00BF00BF1822134957
:103960003C3104A807F09EFA1CA207CA01AB07C3AA
:10397000A6F11E00C7B2A878012800D11AE20020E3
:10398000207001A8C05D60700020A07000220C2192
:1039900004A8FFF778F904AA12F8171032F81720D4
:1039A000100A0122FDF7DEFDF7E10000D4B30008A4
:1039B000F700002023242122A0000020B8B2000834
:1039C0002628000000010200201B0000100100203A
:1039D000A00C0020FB000020FF0000203132333417
:1039E000353637383930606500BF00BF00BF00BFD3
:1039F00000BF00BF00BF00BF00BF00BF00BF182254
:103A0000FE4904A807F04EFAAFF2300207CA01AB34
:103A100007C3A6F12A00C7B2A878012800D1C9E1DE
:103A20000220207001A8C05D60700020A0700022FC
:103A30000C2104A8FFF727F904AA12F8171032F88E
:103A40001720100A0122FDF78DFDA6E100BFEB480B
:103A5000183000680990EAA000680890A6F13600C6
:103A6000C7B20020207008A8C05D6070A878022846
:103A700001D1012000E00020A070A3780BB1012348
:103A800000E000231A4609AB13F8171033F817307B
:103A9000180AFDF767FD4FF0010A00220821D948F6
:103AA000FFF7F1F8362E36D1A878022819D1D6487A
:103AB00000788130C0B28DF8180001208DF819000F
:103AC00004208DF81A0007208DF81B0002208DF8C5
:103AD0001C00FF208DF81D00062106A8FEF7CBFD77
:103AE00050E0C94800788130C0B28DF8180001203C
:103AF0008DF8190004208DF81A0007208DF81B009E
:103B000000208DF81C00FF208DF81D00062106A85E
:103B1000FEF7B1FD36E0A878022819D1BA4800783E
:103B20008130C0B28DF8180001208DF819000420F2
:103B30008DF81A0007208DF81B0003208DF81C005B
:103B4000FF208DF81D00062106A8FEF794FD19E060
:103B5000AD4800788130C0B28DF8180001208DF892
:103B6000190004208DF81A0007208DF81B00002092
:103B70008DF81C00FF208DF81D00062106A8FEF719
:103B80007AFD00BF09E100BF00BF00BF00BF00BF5A
:103B900000BF00BF9DA103C9CDE90801A6F138000F
:103BA000C7B2A878022808D19A4800689A4941F813
:103BB000270000209949C855FCE0A878EE281CD1C0
:103BC0009648C05DC0B9944951F8270091490968E9
:103BD00001F022F8B0F5FA6F0ED901208F49C855CF
:103BE000884A12F8171032F81720100A0122FDF740
:103BF000E4FC032001F085FFDCE00020207008A831
:103C0000C05D60708548C05DA0707E4A12F81710D4
:103C100032F81720100A0022FDF7CFFC00220821FD
:103C20007848FFF730F8774A12F8171032F8172063
:103C3000100A0122FDF796FC4FF0010A7748C05D9B
:103C4000D8B1714800788130C0B28DF818000120D9
:103C50008DF8190004208DF81A003F208DF81B0004
:103C600001208DF81C008DF81D70FF208DF81E00BE
:103C7000072106A8FEF7FFFC1BE0634800788130AF
:103C8000C0B28DF8180001208DF8190004208DF8BD
:103C90001A003F208DF81B0002208DF81C008DF8C3
:103CA0001D70FF208DF81E00072106A8FEF7E3FC1B
:103CB00000BF72E000BF00BF00BF00BF00BF00BF79
:103CC00000BF4E4B1C33D3E901211868DB68CDE9F6
:103CD0000813CDE90602A6F14000C7B2002020700B
:103CE00007F170006070A878022801D1012000E07F
:103CF0000020A070A3780BB1012300E000231A4636
:103D000006AB13F8171033F81730180AFDF72AFC22
:103D100043E051E000BF00BF00BF38492C3103C968
:103D2000CDE90801A6F14800C7B2A878012800D162
:103D300040E03B48C05D08B9012000E00020384960
:103D4000C8550220207007F1610060700846C05D10
:103D5000A0700B46DA5D08AB13F8171033F8173074
:103D6000180AFDF7FFFB18E0042020706B2060703C
:103D7000A878022801D1012000E00020A070A078DE
:103D800008B1012000E00020024608210320FDF7D1
:103D9000E9FB02E000BF0DE000BF00BFBAF1000F79
:103DA00003D103212046FEF766FC03212046FEF7DF
:103DB0006EFC00BF09F10109D8F8040048453FF640
:103DC000B0AB01200BB0BDE8F08F2DE9F04F85B00E
:103DD000074604AC002500202080A0703D7A788939
:103DE000C0F34708B889C0F34709F889C0F3C70B87
:103DF0004FEAA8084FEAA909022013E028B40008F6
:103E000025270000B8B20008A000002061626364AA
:103E10002324212210010020B00C002000010020EA
:103E200008010020207005F00F0050B9FE4800780E
:103E3000022864D100206070A0700120FA49087047
:103E40005DE005F00600062808D12520607048EAEC
:103E50000910A0700220F449087050E005F0050038
:103E6000052808D12620607048EA0910A0700220B9
:103E7000ED49087043E005F00A000A2808D1272020
:103E8000607048EA0910A0700220E749087036E027
:103E900005F00900092808D12820607048EA0910B7
:103EA000A0700220E049087029E005F0020038B156
:103EB0002520607084F802800220DB49087009E048
:103EC00005F0010030B12720607084F802800220E4
:103ED000D549087005F0040038B12620607084F8D8
:103EE00002900220D049087009E005F0080030B1C6
:103EF0002820607084F802900220CB490870CA48DC
:103F0000007850B103212046FEF7C1FBC648007877
:103F1000012802D10020C44908700020207005F05B
:103F2000300058B9C148007802281CD12F20607099
:103F30000020A0700120BD49087014E005F01000B9
:103F400038B12E20607084F802B00220B7490870A2
:103F500009E005F0200030B12D20607084F802B037
:103F60000220B2490870B148007850B103212046C0
:103F7000FEF78DFBAD480078012802D10020AB4947
:103F80000870387A4006060E00220821A848FEF77D
:103F90007AFE06F07E06A74800788130C0B28DF820
:103FA0000000A548007860B906F01E0018B1012095
:103FB000A149087005E006F0600010B102209E499A
:103FC00008709D480078012828D19C48007850B39B
:103FD00006F01E0038BB01208DF8010006208DF888
:103FE000020001208DF8030000208DF804008DF8F8
:103FF000050003208DF806008DF80700FF208DF8DE
:10400000080009216846FEF736FB00208B4908703E
:1040100006F0400018B102208749087062E00020D5
:10402000854908705EE001208DF8010006208DF8BA
:10403000020001208DF8030006F00600E0B1798946
:104040004910C1EBC10202EB01103F21B0FBF1F0BE
:104050001821B0FBF1F201FB1200401CC1B28DF837
:10406000041006F0040119B101218DF8061002E0D8
:1040700002218DF8061005E000208DF804000320D1
:104080008DF8060006F01800E0B1B989491001EB7F
:10409000410202EB01103F21B0FBF1F01421B0FB13
:1040A000F1F201FB1200401CC1B28DF8051006F0C0
:1040B000080119B101218DF8071002E002218DF8E5
:1040C000071005E000208DF8050003208DF807009B
:1040D000FF208DF8080009216846FEF7CCFA012080
:1040E0005649087054480078022870D15448007826
:1040F000D8B106F06000C0B901208DF8010004209D
:104100008DF8020007208DF8030000208DF80400D0
:10411000FF208DF8050006216846FEF7ACFA002066
:10412000474908704449087051E006F040004028B3
:1041300026D1F889C01000EB800A0F20BAFBF0FAF4
:104140000620BAFBF0F100FB11AA0AF1020A0120D5
:104150008DF8010004208DF8020007208DF803007F
:104160000AF13000C0B28DF80400FF208DF8050080
:1041700006216846FEF77FFA01203149087026E0E3
:10418000F889C01000EB800A0F20BAFBF0FA062075
:10419000BAFBF0F100FB11AA0AF1020A01208DF826
:1041A000010004208DF8020007208DF803000AF1B9
:1041B0002000C0B28DF80400FF208DF80500062114
:1041C0006846FEF758FA01201D49087000BF16B96D
:1041D000002019490870012005B0BDE8F08F2DE9D5
:1041E000F84380466C46002500202080A07098F897
:1041F0000850B8F80A00C0F34706B8F80C00C0F33E
:104200004707B610BF100120207005F00F00D8B985
:104210000C480078022871D100206070A070012045
:10422000084908706AE00000090100200A01002026
:10423000B8B20008A00000200D0100200C010020F1
:104240000B0100200E01002005F00600062808D111
:104250002520607046EA0710A0700220FA49087015
:104260004CE005F00500052808D12620607046EADC
:104270000710A0700220F44908703FE005F00A0022
:104280000A2808D12720607046EA0710A070022093
:10429000ED49087032E005F00900092808D128200E
:1042A000607046EA0710A0700220E749087025E018
:1042B00005F0020030B125206070A6700220E249AE
:1042C000087008E005F0010028B127206070A67092
:1042D0000220DD49087005F0040030B1262060702E
:1042E000A7700220D849087008E005F0080028B13E
:1042F00028206070A7700220D3490870D248007847
:1043000070B103212046FEF7B6F903212046FEF7DF
:10431000BEF9CD480078012802D10020CA490870B2
:104320000120BDE8F883F8B505466C46288986B2B9
:1043300000202080A0700120207030206070C6EB2B
:104340000620772190FBF1F086B2A670032120466B
:10435000FEF791F903212046FEF799F90120F8BDF7
:10436000F8B505466C4600202080A0702E8916B155
:10437000012E06D102E06F20607004E06A206070B8
:1043800001E00020F8BD00BF04202070A87BA070D1
:1043900003212046FEF76FF903212046FEF777F947
:1043A0000120EFE72DE9FC410446884600200190FA
:1043B000009001AD00260027277A07F0020038B1EF
:1043C000608906B26089404206B270B2287006E089
:1043D00007F0010018B1608906B270B2287007F0CA
:1043E000080020B1A08906B270B2687009E007F039
:1043F000040030B1A08906B2A089404206B270B272
:10440000687007F0200038B1E08906B2E0894042C8
:1044100006B270B2A87006E007F0100018B1E0898B
:1044200006B270B2A87001F084FDA0B108F0FF00E0
:104430008DF800009DF804008DF801009DF805003E
:104440008DF802009DF806008DF803000422114645
:10445000684601F09BFD0120BDE8FC8110B50446D3
:1044600002212046FFF79EFF10BD10B50446032130
:104470002046FFF797FF10BD38B504467348006823
:104480000090208985B29DF801007149097801F0FA
:104490000F0108438DF80100C5EBC510772190FB93
:1044A000F1F085B2E8B28DF8030001F042FD20B1D1
:1044B00003220421684601F069FD012038BD38B5AA
:1044C00004466248001D006800909DF801006049A4
:1044D000097801F00F0108438DF80100207AC01D12
:1044E000C0B28DF80200608948B1A07C8DF803004D
:1044F0009DF803004030C0B28DF8030002E0207D3B
:104500008DF8030001F015FD20B103220421684657
:1045100001F03CFD012038BDF8B50546002636E027
:1045200005F1080000EB860420784F2802DA207895
:10453000012800DA2AE0A078EE2800D126E045A084
:1045400000680090A078012808D108208DF80000AC
:1045500080208DF8010000208DF803009DF80100F7
:104560003B49097801F00F0108438DF801002078DC
:104570001F30C0B28DF8020001F0DBFC20B1032235
:104580000421684601F002FD00BF00BF761C686888
:10459000B042C5D80120F8BD70B505462C6820781A
:1045A000062801DB002070BD20782B4951F820003F
:1045B00028B120780A4652F820102046884727481C
:1045C000007801280BD12078254951F8200090B1BE
:1045D00020780A4652F8201020468847E3E72078E2
:1045E000204951F8200030B120780A4652F82010B6
:1045F00020468847D7E70020D5E72DE9F04391B062
:1046000007461FB9012011B0BDE8F0833C6894F85B
:10461000038020790511207900F00F002071A07926
:1046200008B9012000E000208146A078062801D1C9
:104630000120E8E74046B8F1490F72D01BDCA0F139
:10464000400009286ED20FE00E0100205CB4000883
:10465000A70000200990007FDC000020A6000020B9
:10466000AC000020C4000020DFE800F0125C5C5CBD
:104670005C5D5E5FAE004C2872D004DC4A2870D0CE
:104680004B284FD1A6E180286CD0C028F9D1E5E1B4
:1046900015BB607908281FDAF74BD3E901211868A8
:1046A000DB68CDE90F13CDE90D020DA901EB051073
:1046B00000220821FEF7E7FA0DAA02EB0512637942
:1046C00012F813100DAA02EB051232F81320100A8B
:1046D0004A46FCF747FF23E0042D21DA60790428DD
:1046E0001EDA1822E44910310BA806F0DBFB681E25
:1046F000C5B20BA901EBC50000220421FEF7C3FAE5
:104700000BAA02EBC502637912F813100BAA02EB95
:10471000C50232F81320100A4A46FCF723FF00BFF7
:10472000EDE155E1E9E1EAE1E9E16679062E1BD028
:1047300005DC4EB1022E0DD0052E42D113E0402EE5
:1047400033D0412E3DD136E04A4600210846FCF7E1
:1047500009FF37E04A4601210020FCF703FF31E062
:1047600052E136E179E100BFC34A283207CA0EABF5
:1047700007C3032D18DA0EA901EB850000220221E0
:10478000FEF781FA0EAA02EB85036279521F13F835
:1047900012100EAA02EB85036279521F33F8122021
:1047A000100A4A46FCF7DEFE0CE04A4601210846A4
:1047B000FCF7D8FE06E04A4600210120FCF7D2FEB5
:1047C00000E000BF00BF9AE11822AB4934310BA8CA
:1047D00006F068FB1822A8494C3105A806F062FBD8
:1047E0006679112E7BD00CDC112E79D2DFE806F031
:1047F00030ED3132333435365455565758597E7F63
:104800008000842E6DD012DC802E6BD008DC122E3E
:1048100070D0132E6FD0142E6ED0152E60D16CE098
:10482000812E7DD0822E7CD0832EF7D18AE0922EED
:1048300078D006DC852E76D0902E75D0912EEDD1D5
:10484000A1E0932E71D0942E70D0952EE6D19EE0EB
:10485000BCE000BF00BF00BF00BF00BF00220C21B2
:104860000BA8FEF710FA6279921E0BAB13F8121028
:104870006279921E33F81220100A4A46FCF772FE43
:104880002079012807D16179891EC8B201231A460F
:104890004946FEF753FA99E000BF00BF00BF00BFD2
:1048A00000BF00220C2105A8FEF7EDF96279083A55
:1048B00005AB13F812106279083A33F81220100A87
:1048C0004A46FCF74FFE2079012807D16179083963
:1048D000C8B201231A464946FEF771FA76E008E0AD
:1048E00073E030E02BE005E005E005E000BF00BF2D
:1048F00000BF00BF00BF00BF00BF5F4B64330FCBE2
:10490000CDE90323CDE901010022082101A8FEF72A
:10491000BAF962790E3A01AB13F81210627906E027
:104920000EE00EE030E00FE02CE02EE02EE00E3A3C
:1049300033F81220100A4A46FCF714FE46E000BF86
:1049400000BF00BF00BF00BF00220C210BA8FEF774
:104950009AF962797A3A0BAB13F8121062797A3AC3
:1049600033F81220100A4A46FCF7FCFD2079012892
:1049700007D161797A39C8B201231A464946FEF750
:10498000DDF923E000BF00BF00BF00BF00BF002271
:104990000C2105A8FEF777F962798A3A05AB13F87E
:1049A000121062798A3A33F81220100A4A46FCF74C
:1049B000D9FD2079012807D161798A39C8B201234C
:1049C0001A464946FEF7FBF900E000BF00BF96E03B
:1049D00095E094E06679052E15DAA6B12649743182
:1049E00003C9CDE90F01002204210FA8FEF74BF9FE
:1049F000721E0FAB13F8121033F81220100A4A4639
:104A0000FCF7B0FD00BF7AE06679A6F160000728E8
:104A100020D2DFE800F00405060708090A0000BFFD
:104A200000BF00BF00BF00BF00BF134B7C330FCBE4
:104A3000CDE90F23CDE90D016279603A0DAB13F892
:104A400012106279603A33F81220100A4A46FCF7D5
:104A500089FD00E000BF00BF51E050E0607901280F
:104A60004AD1A07920B1022821D0032841D124E0E5
:104A7000024E2EB90020C6E564B40008940C002054
:104A80000020306070603081AA2030705B48007870
:104A900070700720B070C020F07001207071304637
:104AA000FDF720FD08213046FDF7E5FD23E000205D
:104AB000FCF7C5FDFDF769FF1DE0514E0EB9002062
:104AC000A1E50020306070603081AA2030704B4832
:104AD000007870700720B0708020F070FBF75EFEE9
:104AE00070713046FDF7FEFC08213046FDF7C3FD2E
:104AF00001E0002087E500BF01E0002083E500BF62
:104B0000012080E5014601207047014601207047E1
:104B10002DE9F04707464FF0010917B90020BDE81D
:104B2000F0873D68687800F0F006687800F00F00C4
:104B300034490978884201D00020F0E7802E02D164
:104B40004FF000090CE0902E01D0B02E06D1E8788D
:104B500000F07F0020B94FF0000901E00020DEE7FF
:104B6000AC78202C01DB6E2C01DD0020D7E7A4F10E
:104B70001F00C4B2012C11DB4F2C0FDA601E22493A
:104B800031F810804FF6FF70804506D008F0FF0125
:104B90004FEA18204A46FCF7E5FC00BF0120BEE7BB
:104BA00010B50446A07A012803D12046FFF725FD61
:104BB00010BDA07A082803D12046FFF7A3FFF7E72E
:104BC000A07A092803D12046FFF79FFFF0E7A07ADB
:104BD0000A2803D12046FFF79BFFE9E70020E7E71B
:104BE0000A48006800F4E06009490843001D0749CD
:104BF0000860BFF34F8F00BFFEE70000A000002059
:104C0000940C0020A7000020C8B200080CED00E0C2
:104C10000000FA0500BFFEE70246914201D3881A60
:104C20007047C2F1FF300844FAE710B5FCF734FDD5
:104C300000F06AFFFCF7D0F91248007800F00F008E
:104C40000F2818D11048007800F0030414B9FBF7BE
:104C50000EFE0AE0012C02D1FBF731FE05E0022C2A
:104C600003D0032C01D1FBF716FE07480078401C47
:104C70000549087000BF03480068401C01490860EE
:104C800010BD0000100100201801002010B5012106
:104C9000080702F0E4FE01217D2002F0D3FE10BDE2
:104CA00010B50121474802F07CFC10BD30B54648E4
:104CB00000684FF47A72B0FBF2F1B1F1807F00D35B
:104CC0001DE021F07F40401E4FF0E0225061501760
:104CD0000F22002807DA13071D0E3C4B00F00F04CB
:104CE000241F1D5503E013071C0E394B1C5400BF35
:104CF00000204FF0E02290610720106100BF30BD1E
:104D000010B586B004460121880402F0A8FE0021F7
:104D1000304803F0D8FE02A803F0B2FE029402A9C4
:104D20002C4803F044FE01212A4803F0CCFE4FF446
:104D30008060ADF8040003208DF8060018208DF87F
:104D4000070001A9244802F05BFB4FF40060ADF8B6
:104D5000040004208DF8070001A91F4802F050FB51
:104D600006B010BD10B586B004460121480402F01B
:104D700076FE0021194803F0A6FE02A803F080FE8B
:104D8000029402A9154803F012FE0121134803F012
:104D90009AFE0420ADF8040003208DF806001820C8
:104DA0008DF8070001A90E4802F02AFB0820ADF893
:104DB000040004208DF8070001A9094802F020FB37
:104DC00006B010BD000230000000002018ED00E029
:104DD00000E400E000480040000C014000440040B6
:104DE0000008014010B50346002004E0141A641EB8
:104DF0000C5D1C54401C9042F8D310BD30B50246E7
:104E00000B464FF0FF3002B103B930BD002108E07E
:104E1000C4B2555C6C40734D55F8244084EA1020B0
:104E2000491C9942F4D3C04300BFEEE770B5024677
:104E30000C46FF25FF2312B94FF6FF7070BD09E045
:104E400012F8010B80EA03016748405C80EA050321
:104E50006648455C201EA4F10106B4B2F0D143EAD5
:104E60000520EBE72DE9F04F03460C46944600225F
:104E70001D680026DFF87891012C57DD601E53F87D
:104E80002020342090FBF4F000F1060846E04E4468
:104E9000C6F3810700211FE0481C53F82050500939
:104EA00080EA85004FEAD50A8AEA021A504486EA67
:104EB000050A01F0030B8BEA070B5CF82BB08BEAB9
:104EC000020BDA4480EA0A0053F821A0504443F868
:104ED000210053F82120491C601E8842DCDC1D683B
:104EE000500980EA85004FEAD50A8AEA021A82440C
:104EF00086EA050001F0030B8BEA070B5CF82BB088
:104F00008BEA020B58448AEA000A601E53F820001C
:104F10008244601E43F820A053F82020B8F100001E
:104F2000A8F10108B3DC0020BDE8F08FB4F1FF3F29
:104F300056DA6442601E53F82020342090FBF4F0CF
:104F400000F1060808FB09F646E0C6F38107611E7A
:104F500020E0481E53F82020500980EA85004FEADF
:104F6000D50A8AEA021A504486EA050A01F0030BC0
:104F70008BEA070B5CF82BB08BEA020BDA4480EA71
:104F80000A0053F821A0AAEB000043F8210053F8CF
:104F90002150491E0029DCDC601E53F820205009F6
:104FA00080EA85004FEAD50A8AEA021A504486EA66
:104FB000050A01F0030B8BEA070B5CF82BB08BEAB8
:104FC000020BDA4480EA0A00D3F800A0AAEB000042
:104FD00018601D68A6EB0906002EB6D10020A3E7D5
:104FE0000120A1E700B5000800B9000800BA0008D8
:104FF000B979379E2DE9F04707460C461646984684
:105000004FF0000917B10CB1002E03DA4FF0FF305A
:10501000BDE8F087FBF7DCF8814606EB4600C100EF
:10502000204605F09BFF1421384605F097FF002528
:1050300010E005EB450004EBC000A0F80C8005EB88
:10504000450004EBC000183005EB450104EBC1013D
:1050500008616D1C701EA842EBDC002005EB4501C9
:1050600004EBC10108617E603C604846FBF7B4F880
:105070000020CDE770B50446002600250CB90020BD
:1050800070BDFBF7A5F80646206828B12568286999
:1050900020600020686128613046FBF79DF82846B3
:1050A000EEE72DE9F04106460C46174606B11CB95D
:1050B0004FF0FF30BDE8F0814FF0000817B106F166
:1050C0000C0001E006F110000546FBF781F8804670
:1050D000286818B92C606461246109E0286820619F
:1050E00028684069046128684069606128684461F3
:1050F0004046FBF771F80020DCE72DE9F04105465A
:105100000F464FF00008002615B90020BDE8F081D9
:1051100017B105F10C0001E005F110000446FBF7A2
:1051200057F88046206808B9002618E026682068ED
:1051300000692168884202D1002020600CE02068CC
:1051400040692168096948612068006921684969E6
:10515000086120680069206000207061306140466D
:10516000FBF73AF83046D1E770B504460D4604B176
:1051700015B94FF0FF3070BD0026FBF729F8064641
:105180002068286125603046FBF726F80020F2E70A
:105190002DE9F04104460D461646002704B11DB91D
:1051A0004FF0FF30BDE8F081FBF712F807461821F9
:1051B000204605F0D3FE25607008A060A068284452
:1051C00060603846FBF708F80020EBE72DE9F04770
:1051D00004460F4615464FF00008C14604B11FB9FA
:1051E0004FF0FF30BDE8F087FAF7F2FF80466169C3
:1051F000A068461AB54202D94FF0FF3929E0E068AD
:105200002844A16888420FD9D4E90201461AE2680D
:10521000216888183246394605F0FFFDAA1BB919E6
:10522000206805F0FAFD06E0E268216888182A4641
:10523000394605F0F2FDE0682844E060D4E9021048
:10524000B0FBF1F201FB1200E0606069284460618C
:1052500000BF4046FAF7C0FF4846C3E72DE9F041DA
:1052600004460D46002714B90020BDE8F0816069AE
:1052700008B90020F9E7FAF7ABFF0746D4E90401C3
:105280000844A168884211D92169A068461A236997
:105290002268D1183246606805F0BFFD63699A1B29
:1052A000D4E90013981905F0B8FD06E026692368D3
:1052B00099196269606805F0B0FDD4E904010844F9
:1052C0002061A1682069B0FBF1F201FB12002061AE
:1052D0000DB160692860002060613846FAF77CFFF4
:1052E0006068C2E72DE9F0410646042701F069FD38
:1052F00001F0D3FF04466EB1FE4961EA0405084699
:10530000A043884217D001F026FE284601F0E3FEB4
:1053100000F016FBF7482043C543F649C94344EA69
:105320000100401C38B101F016FE15B1284601F00D
:10533000D2FE00F005FB01F050FDBDE8F0812DE943
:10534000F74F044690460426DDF804B028F0030029
:10535000404502D0701FBDE8FE8FA40AA40204EBF2
:10536000080901F02EFD08F2FF304FEA902A35209F
:1053700001F0C2FF002707E04FF4806101FB074006
:1053800001F064FD06467F1C574501D2042EF3D080
:10539000042E00D026E02546002708E038467F1C72
:1053A0005BF82010284601F021FE06462D1D4D45D4
:1053B00001D2042EF2D0042E00D013E0254604269C
:1053C000002708E02A6838467F1C5BF820008242EC
:1053D00000D002262D1D4D4501D2042EF2D101F040
:1053E000F0FC00BF042E02D04FF0FF30B3E70020E6
:1053F000B1E770B5044634B10C252A46BE492046B3
:1054000005F050FD00BF70BD2DE9F04107460026B4
:10541000BA4D002415E055F82400401C78B9601CF2
:1054200055F82000401C50B9A01C55F82000401C25
:1054300028B9E01C55F82000401C00B903E0361DD7
:10544000641CBE42E7D300BF3146AC48FFF7D6FC30
:10545000BDE8F0812DE9FF4104460D4616461F4682
:1054600004B125B94FF0FF3004B0BDE8F08195E8F4
:1054700007008DE8070003964FB19DE80F0084E810
:105480000F006A4604212046FFF7ECFC06E09C482A
:1054900020606A4601212046FFF7E4FC0020E3E794
:1054A0002DE9F0438BB006460F46154626B94FF05E
:1054B000FF300BB0BDE8F0834FF00409E84696E8F2
:1054C0000F0001AC0FC417B18E48009009E08C4862
:1054D00000900020CDE9065001AA022106A8FFF79E
:1054E000C1FC00200890002405E058F8241008981A
:1054F00048400890641C082CF7D301F062FC34206B
:1055000001F0FAFE804801F0A1FC8146E846002443
:1055100010E058F824107C4A02EB840001F066FD8C
:105520008146B9F1040F04D001F057FC4FF0FF3071
:10553000BFE7641C0A2CECD301F04FFC0020B8E755
:105540002DE9F04387B0054688466F4C6F480068E8
:10555000401CB0B96E48FFF74CFF4FF0FF30FFF72B
:1055600053FF6A4908600023084669490268694890
:10557000FFF770FF01236548654902686648FFF739
:1055800069FF6648007800287CD15D492068884220
:1055900003D05C492068884267D1DFF86C9100270E
:1055A000002603E059F826004740761C082EF9D360
:1055B000206AB84258D152492068884238D15548AB
:1055C00000686168884224D1D4E90601CDE904016C
:1055D000221D6FF0010104A8FFF744FC0020DDE963
:1055E0000421D2F10302884103D204204B49087000
:1055F0000EE0484B0FCB8DE80F0004994A1C4FF08A
:1056000000016846FFF74CFF01204449087000BFC5
:105610002AE0404B0FCBCDE90423CDE9020104225F
:10562000002102A8FFF73CFF04203C4908701BE062
:105630001022211D384805F0A5FB18B90320374971
:10564000087011E0334BD3E901211868DB68CDE91C
:105650000413CDE902020422002102A8FFF720FF73
:1056600004202E49087000BF0CE02A4B0FCB02AE7D
:105670000FC60022114602A8FFF712FF012027499A
:10568000087000BF25480078012831D124480168FE
:1056900024480068FFF7C0FA44F62061884227D901
:1056A000D4E90601CDE90401201D0FC88DE80F00E3
:1056B0001B4800681B490860221D6FF0010104A807
:1056C000FFF7D0FB0498421C4FF000016846FFF73B
:1056D000E7FE0020DDE90421D2F10302884102D275
:1056E00004200E49087015B141460220A84700BFAA
:1056F0000A4819E0F8FFFF01E8F7FF1F0030000833
:1057000067452301EFCDAB890090010824010020FB
:10571000D00C0020EC0C0020DC0C00201C01002030
:1057200010010020200100200078042821D110223F
:10573000211D8A4805F026FB28B9032088490870F6
:1057400007B0BDE8F08315B141460420A84785485D
:10575000016885480068FFF75FFA44F620618842D7
:1057600007D9804800688049086015B14146052086
:10577000A84700BFE4E770B50446042501F021FB0B
:1057800000BF342001F0B8FD01F0E5FB0546042D13
:1057900000D005E02146754801F079FC054600BFC0
:1057A00000BF01F01AFB042D01D1002070BD4FF0A5
:1057B000FF30FBE76D480078704770B586B0142164
:1057C00001A805F0CBFB002501AE1422684901A811
:1057D00005F068FBBDF804004AF2A551884200D0EC
:1057E0002FE0002404E036F81400284485B2641C3D
:1057F000092CF8D3BDF81600A84221D1BDF8060047
:105800005C490880BDF808005B490880BDF80A00C3
:105810005A490880BDF80C0059490880BDF80E00AF
:1058200058490880BDF8100057490880BDF812009B
:1058300056490870BDF814005549087006B070BD8F
:1058400000BF08204B49088040F236604A49088072
:1058500040F6F610494908802820494908804FF44D
:105860007D60484908803020474908800120474929
:10587000087000204649087000BFDFE72DE9F041BD
:1058800086B04FF00408142101A805F067FB00253D
:1058900001AE374F4AF2A550ADF8040035480088F4
:1058A000ADF8060034480088ADF808003348008899
:1058B000ADF80A0032480088ADF80C003148008885
:1058C000ADF80E0030480088ADF810002F48007881
:1058D000ADF812002E480078ADF81400002404E062
:1058E00036F81400284485B2641C092CF8D3ADF8AE
:1058F000165001F066FA342001F0FEFC1C4801F05D
:10590000A5FA8046002410E036F81410384601F05D
:10591000A0FB8046B8F1040F05D001F05EFA00202C
:1059200006B0BDE8F081BF1C641C0A2CECD301F06A
:1059300054FA0120F4E7024610880B88C01A704719
:105940001448006800F4E06013490843001D114941
:105950000860BFF34F8F00BFFEE70000DC0C0020A3
:105960001C010020100100202001002004F8FF1F6E
:1059700000F0000816000020180000201A00002087
:105980001C0000201E00002020000020A600002097
:10599000A70000200CED00E00000FA0500B587B07C
:1059A00004A802F0B3FC684602F0B9FC0121C80269
:1059B00002F048F88220ADF8140040F26710ADF80C
:1059C00010000020ADF81600ADF8120004A98148BF
:1059D00002F070F901217F4802F08EFF6020ADF8DF
:1059E00000000120ADF802006420ADF8060002209E
:1059F000ADF808006946774802F099F90121754829
:105A000002F0C0FC07B000BD08B54FF48070ADF8DF
:105A1000000018208DF8030003208DF8020069466D
:105A20006D4801F0EDFC08BD08B54FF48070ADF88D
:105A3000000010208DF8030003208DF80200694655
:105A4000654801F0DDFC00224FF48071624801F0EE
:105A500088FD08BD10B5FFF7A1FF10BD2DE9F0418D
:105A600004465E49A0680968FFF7D6F80546A08895
:105A7000E17800FB01F6AE4218D2607808B9012047
:105A800000E000206070074637B10121514802F064
:105A90006DFCFFF7B9FF05E000214E4802F066FCFF
:105AA000FFF7C2FFE078401CE07000BFE078A1780B
:105AB00088420CDD002020700021464802F056FC90
:105AC000FFF7B2FF00204649087046490870BDE85C
:105AD000F08170B504460D46164601202070680618
